:020000040800F2
:1000000000000120610B0008C9080008CD080008A5
:10001000D1080008D5080008D90800080000000031
:10002000000000000000000000000000DD080008E3
:10003000E108000800000000E5080008E9080008E1
:10004000B10B0008B10B0008B10B0008B10B0008A0
:10005000B10B0008B10B0008B10B0008B10B000890
:10006000B10B0008B10B0008B10B0008B10B000880
:10007000B10B0008B10B0008B10B0008B10B000870
:10008000B10B0008B10B0008B10B00080000000024
:10009000000000000000000000000000B10B00089C
:1000A000B10B0008B10B0008B10B0008B10B000840
:1000B000B10B0008B10B0008B10B0008B10B000830
:1000C000B10B0008B10B0008B10B0008B10B000820
:1000D000B10B0008B10B0008B10B000800000000D4
:1000E000B10B0008B10B0008B10B000800000000C4
:1000F000000000000000000000000000B10B00083C
:1001000000000000B10B0008B10B0008B10B0008A3
:1001100000000000000000000000000000000000DF
:10012000B10B0008B10B0008B10B0008ED08000886
:10013000B10B0008000000000000000000000000FB
:10014000000000000000000000000000B10B0008EB
:10015000B10B0008B10B0008B10B0008B10B00088F
:10016000B10B0008B10B0008000000000000000007
:10017000000000000000000000000000000000007F
:1001800000000000B10B00080000000000000000AB
:04019000B10B0008A7
:1001980010B5054C237833B9044B13B10448AFF3B9
:1001A80000800123237010BDBC0000200000000067
:1001B8000C1C000808B5034B1BB103490348AFF3F7
:1001C800008008BD00000000C00000200C1C0008D2
:1001D8002C4A136823F0070343F0020310B5136099
:1001E800136803F00703022BFAD12749274B0A6843
:1001F80022F4404242F400420A601A6842F4803213
:100208001A601A689203FCD51A68214942F4002240
:100218001A6058681F4A01400A435A6059681B4AC5
:1002280021F440315960196841F0807119601368F0
:100238009B01FCD59368154C23F0F00393609368F9
:1002480023F4E05343F480539360936823F46043AA
:100258009360936823F0030343F002039360A36859
:1002680003F00C03082BFAD10B4801F077FC0A487D
:1002780001F096FCD4F88C3023F08073C4F88C30ED
:1002880010BD00BF003C0240007000400038024032
:100298000080BFFF192A400000BD010500000000D2
:1002A8002DE9F04F2DED028BCB4ACC4BCC4ECB4CED
:1002B800DFF84083DFF834A3ADF2147D116841F410
:1002C80000711160116841F4806111601068C449BF
:1002D80040F4807010605A6C42F480425A645A6C40
:1002E80010AF02F48042FA61FA69186CBD4A40F016
:1002F800805018641B6C03F08053BB61BB69CB68EA
:100308004FF6FF0003401A43CA60CB68C3F30223C9
:10031800C3F107011A1D042928BF0421062A88BF32
:10032800DA1E4FF0FF3303FA01F398BF0022DB43D4
:1003380093401B01DBB2002586F82330FFF748FF06
:10034800C7E92355C7F89450236B43F08003236310
:10035800236B03F08003BB63BB6B236B43F0010388
:100368002363236B03F00103FB63FB6B236B43F0F5
:1003780002032363236B03F002033B643B6C9FED92
:10038800908B02231C22C8F8182007F18001CAF8B4
:1003980018300C22C7F8883040460123C7E92023CB
:1003A8004FF0010901F0D6F907F18001102201236D
:1003B8004046C7E9202387ED228BC7F8909001F0CB
:1003C800C9F907F18001022201235046C7E9202319
:1003D80087ED228BC7F8909001F0BCF9236B824817
:1003E800DFF81082DFF810A2DFF8109243F48003E0
:1003F8002363236B03F480037B637B6BF368774E83
:10040800C3F30223C3F10702191D042A28BF0422DB
:10041800062988BFDD1E4FF0FF339340DB4303F00E
:100428000203AB401B01DBB24FF0006480F83B33A2
:10043800282244600021002407F1800001F0DAFB43
:10044800C7E91944736C43F480537364736C03F401
:100458008053BB62BB6A336B43F001033363336B76
:1004680003F00103FB62FB6A336B43F0020333635F
:10047800336B03F0020307F158053B633B6B03231F
:10048800AB6005236B612946A02202234046C7E9D9
:10049800162301F05FF910220223C7E9162303226D
:1004A8000023C7E918232946002205234F48C7E936
:1004B8001A2301F04FF94E4B9A6D22F0606242F018
:1004C800C0629A659A6D22F0C00242F040029A65B5
:1004D8009A6D22F440329A659A6D22F490729A6568
:1004E8009A6D22F400729A659A6D42F480629A6558
:1004F8009A6D22F4C05242F400629A659A6D22F411
:10050800C04242F400529A65DA6E22F00402DA66BA
:1005180000224FF48273C7E920239FED2B8B4FF401
:1005280000620023C7E9222300224FF40073C7E9C1
:10053800242307F1800100220A235046C7E9282313
:1005480087ED268B01F0AAF9DAF8043007F1440B9D
:1005580023F01003CAF8043020222146CBE90044D6
:10056800CBE90244CBF8104007F1800001F042FBD0
:10057800C5E90044C5E90244C5E90444336C43F0C5
:1005880002033364336C03F002033B623B6A40F2BC
:10059800E733ABF80030D1235946CBF8083048464A
:1005A80001F0B4F9D9F800304FF0804223F080030D
:1005B800C9F80030D2F818349FED057B20E000BF61
:1005C8000200000000000000000000000000000021
:1005D8006000000000000000003C024000380240BB
:1005E80000ED00E00003FA0500E100E0000402402D
:1005F8000064024000000240003001400004004056
:1006080043F00803C2F8183487ED207B9FED9E7BEA
:1006180007F180031A460121484687ED227BC7F877
:10062800904001F0BFF94FF080422946D2F81834C3
:1006380023F00403C2F81834D9F8043023F0700307
:10064800C9F80430D9F8083023F08003C9F8083015
:10065800336B43F001033363336B03F001037B62B5
:100668007B6A40220223C7E9162340460022022360
:10067800C7E91A2387ED188B01F06CF88BA1D1E933
:10068800000103230822C5E902382A82804BC5F8F5
:10069800148004222A8310222A84C5F81C80C7E902
:1006A80016010FCB8BE80F00DAF8003023F00203B5
:1006B800CAF80030DAF8003023F00103CAF8003035
:1006C800D8F80C20802696FAA6F3B3FA83F3032110
:1006D8005B0001FA03F322EA030396FAA6F6C8F8C8
:1006E8000C30D8F80C20202090FAA0F3B3FA83F34A
:1006F8005B0001FA03F322EA030290FAA0F3C8F8B8
:100708000C209BE80F000BAE86E80F00DFF8A4A1D1
:10071800604BDFF8A48109954FF4A07E4FF0F00CF0
:10072800CDE907A3CDE900CECDE902445A4B0693A3
:100738004FF00209594B0593CDF82890CDF8109049
:10074800624607F180017346D8F8000000F042FBCA
:100758000646C8F8000000F03DFCF288F2B1DFF868
:100768005C814F4D1146B388013B9BB2C4EB042218
:100778002846B2FBF1F24146D2B27B6100F0C2F8E2
:100788001FFA84F9CDE9009000217B694A4630467A
:1007980000F068FDF1880134A142E4DC414C0022FC
:1007A80011462346304600F0E7F8A368F288B0887F
:1007B8006168D21A23463C4C411A304600F0DCF8F6
:1007C800234632226421304600F0D6F86268A168D8
:1007D8007A6001FB02F35B00073323F00703ADEBFC
:1007E800030D10A8ADEB030D1FFA82FA1FFA81F86A
:1007F80010ABCDE900803960B8607B613222534686
:100808006421304600F078FE4FF00109CB463225CE
:1008180064247B69AAB2A1B2CDE90083304653466D
:10082800C7E9032100F068FE01220292BA68534624
:10083800CDE900823046D7E9032100F01FFE3220BF
:1008480001F09CF97B690122CDE9008302925346AD
:10085800D7E90321304600F011FE14EB0B044D4498
:100868000DD0B3887A689B1AA34208D025B1F388C3
:100878003A689B1AAB42CCD1C9F10009C9E7CBF160
:10088800000BF3E7AFF300800000000069000000F0
:10089800241C00085517000829170008ED16000841
:1008A80059E2FF00B4740008A47400080030014045
:1008B800006402404D170008D800002051A7FF002F
:1008C800FEE700BFFEE700BFFEE700BFFEE700BF90
:1008D800FEE700BF704700BF704700BF704700BF0A
:1008E800704700BF0148032100F060B9006402406E
:1008F800034AD2F8883043F47003C2F8883070474E
:1009080000ED00E070B5C0F307465FFA80FEC0F363
:100918000724C1F30720174D201AC1F307435FFAD4
:1009280081FC02FB00F0AEEB0C0CF31A02FB0CF19D
:1009380002FB03F385FB00C202EB000CC217A2EB1B
:10094800EC12144485FB03201844DB17A3EBE013D7
:1009580085FB01200844C9173344A1EBE011E4B238
:1009680024027144DBB244EA0343C9B243EA0100FA
:1009780070BD00BF818080802DE9F04F2DED028B86
:100988008BB004AF044638616846002B00F09D80A8
:100998000029C0F29A80002AC0F297809846234620
:1009A800A4888C4240F39180DD88954240F38D8085
:1009B800D8F804305E18B442C0F28780D8F80840EE
:1009C800A618B542C0F2818098F80C50002D00F0AE
:1009D8008380032D00F0B980042D14BF4FF0020965
:1009E8004FF0040908EE900A5800073020F007007D
:1009F800ADEB000D04A8002CF86040F3A28092B281
:100A080089B23A6008EE101A0022DFF848B17A611C
:100A1800144615461646FA68019201210091396874
:100A280078690A1892B218EE101A7A6038699BB27F
:100A380000F062FDD8F804107A68B96000292DDD4D
:100A48007869D8F8003098F80CE001FB00FC09FB45
:100A58000C3CFB6807EE902A03EB410A18467146E6
:100A680000293CD19CF80040E600A50106F0E0060C
:100A780004F0E004EDB2330243EA04430BEA132E18
:100A88005B094EEAD50E03F4FC634EEA03030380C8
:100A980002308245CC44E3D117EE902A0123029319
:100AA800FB6801930123009379693B893869013117
:100AB800796118EE101A00F0E1FCD8F8083079696D
:100AC8008B423EDDD8F80430A5E785461C37BD4685
:100AD800BDEC028BBDE8F08F4FF0010982E70129D8
:100AE80010D0022919D0032924D00429C3D1DCF855
:100AF800003013F07F4FCBD0C3F30744C3F307266E
:100B0800DDB2B8E7BCF800502C0AEE08ED0004F09E
:100B1800F80406F0FC06EDB2ADE7BCF800300C4A6C
:100B28001342B5D01C091D0104F0F00403F0F006CF
:100B3800EDB2A0E79CF800409CF801609CF80250D8
:100B480099E718EE903A9D46C0E7A9464AE700BFE4
:100B580000F0FFFF00F8FFFFDFF834D00D480E4922
:100B68000E4A002302E0D458C4500433C4188C42FF
:100B7800F9D30B4A0B4C002301E013600432A24264
:100B8800FBD3FFF7B5FE01F011F8FFF789FB7047BB
:100B98000000012000000020BC000020D4740008E0
:100BA800BC000020DC000020FEE7000010B53D4B33
:100BB80084468E4693E8030082B002AB03E9030043
:100BC8000EF108026A44BEF1030F12F8082C4FF028
:100BD8003F0303FA02F388BF0CF10C01324A98BFB5
:100BE8000CF108010B60136833B19A6A944505D07B
:100BF800D3F84C36002BF8D102B010BDDA6A96450E
:100C0800F6D11A6C22B15269B3F844101142EFD1EF
:100C1800264A12F80E005CF8002022F001024CF877
:100C280000205CF80020D2070CEB000103D500BFC0
:100C38000A68D407FBD4D3F83C26D2B95A6A51685B
:100C480021F0020151609168080604D500BF5A6A74
:100C580091680906FAD493F8411621B9196C11B1B3
:100C6800B3F844308B61136823F04003136002B07B
:100C780010BDB2F5803F0BD24A600022C3F83C2673
:100C88005CF8003043F001034CF8003002B010BDAE
:100C9800A2F57F42FF3A4FF6FF744C60C3F83C263A
:100CA800EEE700BF341C0008D8000020C474000818
:100CB800F8B5456A2B685B06044623D494F8413698
:100CC8002BB9236C1BB1B4F8442012049A612B6829
:100CD80023F42C432B602B6843F040032B600B78E4
:100CE800012B4ED0022B6DD093B194F8413623B925
:100CF800236C13B1B4F844209A612B6823F04003A5
:100D08002B60F8BD00BF636A1B685F06D6D5F9E79C
:100D1800A28F636AA66B48781204B26118739A6846
:100D2800960707D400BF9A689007FBD59A68120601
:100D380003D500BF9A681206FBD48E7801F1030E22
:100D4800002E45D070460EEB060C636AA76B10F8B0
:100D5800012BA18FB9611A739A68970707D400BF4E
:100D68009A689107FBD59A68120603D500BF9A685E
:100D78001206FBD46045E8D10EEB06010B78012B77
:100D8800B0D14E7801F1020E16B370460EEB060C88
:100D9800636AA76B10F8012BA18FB9611A739A685F
:100DA800970707D400BF9A689107FBD59A6812067F
:100DB80003D500BF9A681206FBD46045E8D10EEB54
:100DC8000601DBE748788E1C00F0D8FE314686E73E
:100DD800714684E72DE9F04F83B01F46BDF93830DE
:100DE8000093BDF93C30BDF83090BDF834809DF8D3
:100DF80040B09DF858A001930C46002900F0DC8013
:100E080000210546164620464FF4CA6200F0F2FE5D
:100E1800DDF854C084F848A0BCE80F0004F1240EA3
:100E2800AEE80F00BCE80F00AEE80F00DCF80030B9
:100E3800CEF80030A36A002B3CD0E26A6449895C92
:100E48005A5822F001025A505A58D20703EB0100AF
:100E580005D500BF0268D207FBD494F848A0BAF1C0
:100E6800010F0BD0BAF1020F0ED15A5822F4F042FA
:100E78005A505A5842F420525A5005E05A5822F40F
:100E8800F0425A505A585A505A5822F4802222F0A6
:100E98000E025A50426922F0800242615A5842F0CA
:100EA80010025A505A5822F400725A505A5842F4B2
:100EB80080625A50B742394638BF3146BE4228BFD1
:100EC8003E46BBF1000F46D1009B6381019BA38185
:100ED800A680E180A4F80090A4F802804E4557D877
:100EE800884555D3119B002B52D0129B002B4FD015
:100EF800119A6261129AA261139AE26117AB149A6D
:100F080022620FCB4FF0000C04F14C0604F160078D
:100F180084F808B086E80F0084F840C6C4F84CC6C8
:100F2800C4F848C6E765002D46D0D5F84C3653B10D
:100F380001221D46D3F84C36511C1046CAB2002B6C
:100F4800F7D184F840062046C4F84856C5F84C4600
:100F580003B0BDE8F08FBBF1020F23D0BBF1010F46
:100F68002ED0BBF1030F13D1009BA381019BA8EBEB
:100F780003035B1A638132464B46A180E680A4F8DE
:100F88000080A4F802900E46C14611469846A5E78F
:100F98004FF4CA620021204600F02CFE002003B066
:100FA800BDE8F08F009BA9EB0302019B921BA8EB05
:100FB800030362815B1A8AE7204603B0BDE8F08F1D
:100FC800019B6381009BA9EB03039B1BA381D2E7D1
:100FD800C4740008036B10B504465BB1828E12041A
:100FE8009A61192000F0CAFD236BA28E9A6119201C
:100FF80000F0C4FD6369207A984701462046FFF750
:1010080057FE94F85A10E26C64290B4628BF6423F3
:1010180084F85A300AB3D16A174801FB03F3216DEB
:10102800A0FB0303B1F5807F4FEA531322D00FD8FA
:1010380001291AD0102908BF93631368DB0706D467
:10104800136A19431162136843F00103136010BD5A
:10105800B1F5805FF1D11364EFE7636D002BF6D033
:10106800B4F8582019B19A6110BD5363E5E712042A
:101078009A61F9E7D363E0E71F85EB51436A30B41F
:101088001C68640640D490F841462CB9056C1DB123
:10109800B0F844402404AC6190F8424614B9846B1B
:1010A800858FA5611C6824F42C441C6090F8484086
:1010B800022C1C682ED044F0400452001C6018BF5B
:1010C80001EB020C0FD011F8012B1A739A689507DF
:1010D80003D400BF9A689407FBD56145F3D19A6899
:1010E800120603D500BF9A681206FBD490F8412671
:1010F80022B9026C12B1B0F8441091611A6822F05A
:10110800400230BC1A60704700BF446A2468650614
:10111800B9D5F9E744F400641C601C6844F0400445
:101128001C6002F1FF3C002ADDD031F8022B9A81C5
:101138009A68940703D400BF9A689207FBD5BCF15C
:10114800010CF2D2CFE700BFF0B5866A83B0002E5B
:101158007ED00F4690F84810446A0129154608BF0A
:10116800550022680346500660D493F841262AB9F0
:10117800186C18B1B3F844201204826193F842261F
:1011880012B99A6B988F90612268C3F83C5622F482
:101198002C420229226056D0DA6A3049304811F8C8
:1011A80002C0216841F04001216003C80DF1080E1A
:1011B800032A0EE9030002F108026A44B44412F853
:1011C800081C8CBF0C3608363F228A4032606268A1
:1011D80042F0020262600C34CCF80840CCF80C7083
:1011E800DCF8002022F40072CCF80020DCF80020A3
:1011F800B5F5803F42F48062CCF8002010D3A5F505
:101208007F454FF6FF72FF3DCCF80420C3F83C56EB
:10121800DCF8003043F00103CCF8003003B0F0BD37
:101228000022CCF80450C3F83C26F1E700BF5A6A04
:1012380012685206FAD493F8412693F848109E6A29
:10124800002A95D09AE7226842F400622260A3E758
:1012580003B0BDE8F040FFF711BF00BFC474000839
:10126800341C0008F0B59C4683B06145BDF82030B9
:10127800099E8E46044601D9E6468C469A4202D912
:1012880011461A460B46A188714540F29680E088BF
:10129800904240F2928061459CBF01F1FF311FFAF4
:1012A80081FC98429CBF00F1FF3083B2A18960891C
:1012B800A7699D1A0B4411440CEB000270449BB2C1
:1012C800ACEB0E0C89B292B2013580B20CFB05551D
:1012D800B84701462046FFF7EBFC94F841362BB996
:1012E800226C1AB1B4F844301B04936194F8423666
:1012F80013B9A36BA28F9A615D4B94F8482003EA57
:101308001623C6F3C4017609194306F4FC66314373
:10131800012A636A89B200F082801868A4F844162A
:1013280020F42C401860022A1A6848D142F400625E
:101338001A601A6842F040021A60A26A002A00F095
:101348008980E66A4B484C4910F806C003C902AFC9
:1013580007E9030006F10801032E0DEB010694448A
:1013680016F8080C8CBF0C3208323F2181401160FE
:101378005A6842F002025A600C33CCF8083004F282
:101388004463CCF80C30DCF8003023F40073CCF85C
:101398000030DCF80030B5F5803F23F48063CCF8EA
:1013A80000304DD20023CCF80450C4F83C36DCF8A9
:1013B800003043F00103CCF8003003B0F0BD42F038
:1013C80040021A60A26A002ABBD1C8B2090AADB1AC
:1013D80018739A68960703D400BF9A689707FBD5D5
:1013E80019739A68920703D400BF9A689607FBD5C9
:1013F800023DEDD19A68120603D500BF9A6812061D
:10140800FBD494F8412622B9226C12B1B4F84410E6
:1014180091611A6822F040021A6003B0F0BD1A68A0
:1014280049BA22F42C42A4F844161A601A6842F009
:1014380040021A60A26A89B2002AC6D06D0080E70D
:10144800A5F57F454FF6FF73FF3DCCF80430C4F88F
:101458003C56ACE7002DD1D099819A68920703D405
:1014680000BF9A689707FBD5013DF5D1C6E700BFD5
:1014780000F8FFFFC4740008341C00082DE9F84385
:101488001D468388BDF82060DDF824909DF82880EB
:101498008B4204460AD90846E188914206D900EBF6
:1014A800050C9C4502DC93198B4201DDBDE8F883ED
:1014B800A189B4F80AC0A769731E13440B441144E8
:1014C8006A1E02446244604492B29BB289B280B2FE
:1014D800B84701462046FFF7EBFB06FB05F24946F5
:1014E8002046B8F1000F03D0BDE8F843FFF72CBE43
:1014F800BDE8F843FFF7C2BD2DE9F04F05468088E7
:101508008DB08842BDF8587040F2DC80EC88944277
:1015180040F2D8801E46013B0B449BB2984240F2F1
:10152800D18007F1FF3E96441FFA8EF0844240F2C4
:10153800C9806C89B5F80CE0DFF8A48104EB010BD5
:1015480004EB030A0EEB02098644CBF30723CAF324
:101558000722C9F30721CEF30720009301920291D5
:101568000390B8E80F000DF1180CACE80F000299D1
:101578008DF8261098E803004CF8040B009B03989C
:101588006C6A019A8DF828008DF81F308DF820B00C
:101598008DF821208DF822A08DF82790ACF8001046
:1015A8008DF829E02368580600F18F80012385F81B
:1015B8004136D4F8008023682A6C23F42C4323F0A6
:1015C80038032360236843F0080323601AB1B5F891
:1015D80044301B04936106A92846FFF769FBAB6BEF
:1015E800AA8F9A61236843F0400323600023237382
:1015F800A36807FB06F6DA07314603D400BFA368E1
:10160800DF07FBD5237B00232373A368DB0703D401
:1016180000BFA368D807FBD5237B002E35D0179BC6
:101628002D4F9E1E00202073A368DA0703D400BF45
:10163800A368DA07FBD594F80CC02073A368DB070E
:101648005FFA8CFC03D400BFA368DA07FBD5227BC2
:101658002073A368DB07D2B203D400BFA368DB07FB
:10166800FBD5D200237B07EA0C2C02F4FC624CEA7F
:10167800020242EAD30295F84830012B01D152BA4E
:1016880092B2013926F8022FCDD12B6C23B1B5F8CF
:1016980044209A6100E000BFA3681B06FBD40F4AF0
:1016A800236892E8030023F0400323600023C4F872
:1016B800008004908DF8141085F84136284604A956
:1016C800FFF7F6FA0DB0BDE8F08F00BF6C6A23682B
:1016D80059067FF56BAFF8E700F8FFFF541C0008C8
:1016E8003C1C000858B102280ED0012811D003284C
:1016F8000A4814BF0023F82380F841307047074890
:10170800482380F84130704704489C2380F84130D2
:10171800704702482C2380F84130704704000020AD
:1017280010B4074C49BA618120715BBA000A110AEA
:10173800E07061712046A271A3815DF8044B704787
:101748009800002000487047AC000020004870470F
:10175800B40000202DE9F0470C6894FAA4F2B2FA1C
:1017680082F234FA02F37DD04FF0010E4FF0030CF1
:101778004FF00F0A17E0D0F8008093FAA3F7B7FAF2
:1017880087F793FAA3F3B3FA83F37F000CFA07F70A
:101798005B0028EA070705FA03F33B4303600132BD
:1017A80034FA02F35ED00EFA02F32340F7D04D6804
:1017B8006F1E012F1FD8D0F8088093FAA3F7B7FA45
:1017C80087F793FAA3F98E68B9FA89F97F000CFABA
:1017D80007F74FEA490928EA070706FA09F947EA25
:1017E800090787604768CE6827EA030706FB03F8FE
:1017F80047EA08074760D0F80C8093FAA3F7B7FACE
:1018080087F793FAA3F90E69B9FA89F97F000CFAF8
:1018180007F74FEA490928EA070706FA09F947EAE4
:101828000907022DC760A6D193FAA3F7B7FA87F77D
:10183800072F1ADCD0F8208093FAA3F7B7FA87F7B6
:1018480093FAA3F94E69B9FA89F9BF000AFA07F7BA
:101858004FEA890928EA070706FA09F947EA090752
:10186800076288E70020BDE8F087D0F824901F0AB7
:1018780097FAA7F8B8FA88F897FAA7F74E69B7FA67
:1018880087F74FEA88080AFA08F8BF0029EA080823
:1018980006FA07F748EA070747626CE70246006856
:1018A80010F0400028D1136830B423F47F4CD1E9FC
:1018B80000352B438D684C692B43CD682B430D694C
:1018C8002B438D6923432B43CD692B430D6A2CF0A1
:1018D800BF0C2B4343EA0C031360536823F0040343
:1018E80043EA1443B5F5005F53600BD0D36923F482
:1018F800006330BCD3617047D36923F400630120CF
:10190800D36170478B8C1361F0E700BF244A0368EA
:10191800904230B434D0B0F1804F1DD0A2F57C4253
:10192800904219D002F58062904215D002F580628B
:10193800904211D002F59A32904211D002F580629D
:1019480090420DD002F58062904209D08C680A88D6
:101958000360C46282620CE04A6823F07003134398
:10196800CD688C680A8823F440732B430360C462F3
:101978008262436943F00103436130BC0020704731
:101988004C68CA6823F07003234323F4407313435D
:1019980003608A680B88C26283620B690363E8E7A5
:1019A80000000140B1F5807F30B470D026D80129FD
:1019B8004ED0102948D1036A156923F01003036239
:1019C800036A4468816923F0200343EA0513156814
:1019D80021F4E64141EA0521556823F0100343EA62
:1019E80005135D4DA84200F09C80D5684460002234
:1019F80081618563036230BC10467047B1F5805F32
:101A080022D1036A156923F480530362036A446888
:101A1800C16923F4005343EA0533156821F4E6410C
:101A280041EA0521556823F4805343EA05334A4DBA
:101A3800A84200F08B80D56844600022C16105642B
:101A4800036230BC104670470122104630BC704714
:101A5800036A156923F001030362036A4468816914
:101A680023F002032B43156821F0730129435568BD
:101A780023F001032B43384DA8423ED0D56844607B
:101A8800002281614563036230BC10467047036AD7
:101A9800156923F480730362036A4468C16923F4F7
:101AA800007343EA0523156821F07301294355683B
:101AB80023F4807343EA0523274DA84208D0D5684C
:101AC80044600022C161C563036230BC10467047A0
:101AD800556923F4006343EA8523956924F4805407
:101AE80044EA0514956823F4806343EA8523D5699D
:101AF80024F4005444EA4514E1E7556923F0080347
:101B080043EA8503956924F480742C43956823F08F
:101B1800040343EA8503D56924F4007444EA4504C0
:101B2800ACE7556923F0800343EA8513956924F4EB
:101B3800806444EA8504956823F0400343EA8513EA
:101B4800D56924F4006444EAC5044EE7956924F491
:101B5800804444EA85146EE700000140064BA3FB6D
:101B680000304FF0E0228309013B0020052153613A
:101B780090611161704700BFD34D62104FF0E023B0
:101B880082B01B690193421C019B18BF01304FF0C2
:101B9800E0221369DB03FCD50138FAD102B07047A3
:101BA800014B1860704700BF0000002070B50D4D54
:101BB8000D4C641BA4100026A64209D10B4D0C4CF9
:101BC80000F020F8641BA4100026A64205D170BDC1
:101BD80055F8043B98470136EEE755F8043B98471B
:101BE8000136F2E7CC740008CC740008CC74000805
:101BF800D074000802440346934200D1704703F8AA
:101C0800011BF9E7F8B500BFF8BC08BC9E46704751
:0C1C1800F8B500BFF8BC08BC9E46704741
:101C2400000400400100000000000000000050001B
:101C34000006101600061016003A0166002A040079
:101C4400000000002B0400000000002E0003000030
:101C5400003A01550300000055F566F666F666F68F
:101C640066F666F655F655F655F544F444F455F51E
:101C740055F555F655F655F555F555F555F555F50E
:101C840044F455F555F555F555F555F655F555F511
:101C940055F555F544F545F555F555F555F555F511
:101CA40055F555F555F544F455F577F777F777F885
:101CB40077F877F877F777F766F645F544F466F73B
:101CC40077F778F888F888F888F877F877F766F778
:101CD40044F455F566F666F777F777F777F777F70D
:101CE40077F766F745F544F466F777F777F877F80A
:101CF40077F877F766F644F455F577F777F877F8D9
:101D040088F888F878F877F767F755F544F477F7A3
:101D140088F888F999F999F988F988F988F867F7BA
:101D240044F455F577F777F888F888F888F888F850
:101D340077F877F755F544F466F777F778F888F885
:101D440088F877F866F744F445F566F677F777F799
:101D540077F877F877F877F767F755F544F477F776
:101D640088F888F988F988F988F988F988F867F78C
:101D740044F455F577F777F777F888F888F888F812
:101D840077F877F755F544F466F777F778F888F835
:101D940088F877F866F744F444F455F666F666F77F
:101DA40066F766F766F766F766F645F544F466F691
:101DB40067F777F877F877F877F877F877F766F6CC
:101DC40044F444F466F666F666F777F777F777F740
:101DD40066F766F645F544F466F677F777F777F82D
:101DE40077F877F766F644F444F455F555F666F655
:101DF40066F666F656F655F655F544F444F455F58C
:101E040056F666F666F666F666F666F655F655F521
:101E140034F444F445F555F555F555F655F655F6AF
:101E240055F545F544F444F455F555F556F666F67E
:101E340066F656F655F544F444F444F444F444F494
:101E440044F444F444F444F444F444F444F444F4CE
:101E540044F444F444F444F444F444F444F444F4BE
:101E640044F444F444F434F434F444F444F444F4CE
:101E740044F444F444F444F434F444F444F444F4AE
:101E840044F444F444F444F455F555F655F655F643
:101E940055F544F445F555F655F555F666F666F6EA
:101EA40066F666F666F666F655F544F455F566F696
:101EB40066F666F666F766F766F666F666F655F54E
:101EC40044F455F555F555F655F666F666F666F698
:101ED40066F666F655F544F445F566F777F777F751
:101EE40066F744F444F566F777F777F888F888F8E6
:101EF40088F888F888F877F756F644F455F566F7C5
:101F040077F777F888F888F877F877F766F766F65A
:101F140044F455F566F666F777F777F877F888F8B6
:101F240088F877F866F744F445F566F666F767F7D8
:101F340066F744F544F466F777F888F988F988F980
:101F440088F988F877F877F766F644F455F566F774
:101F540077F888F888F888F878F877F766F755F608
:101F640044F455F566F777F777F877F888F888F842
:101F740088F877F766F644F445F566F666F766F78B
:101F840066F645F544F466F777F888F888F988F832
:101F940088F988F888F877F866F644F455F566F712
:101FA40077F777F877F877F877F766F766F655F501
:101FB40034F455F566F777F777F777F777F777F728
:101FC40077F777F766F644F444F556F666F666F660
:101FD40055F644F434F455F566F777F777F777F860
:101FE40077F777F777F766F756F644F444F456F63E
:101FF40066F677F767F766F766F666F655F644F51C
:1020040033F344F455F666F666F766F766F766F753
:1020140066F766F655F534F444F444F444F444F5B0
:1020240044F434F434F333F444F444F455F555F5FA
:1020340055F555F555F545F544F444F434F444F4B4
:1020440044F444F444F444F444F444F434F433F3EE
:1020540034F434F444F444F444F444F544F444F4DB
:1020640044F444F434F433F344F444F444F444F4CE
:1020740044F444F444F444F444F434F444F444F4AC
:1020840044F444F444F444F444F455F544F444F47A
:1020940044F444F444F444F444F444F444F444F47C
:1020A40045F544F444F444F444F444F444F444F46A
:1020B40044F444F444F444F455F566F666F666F6DE
:1020C40066F666F666F666F666F655F544F455F673
:1020D40066F666F777F777F777F766F766F766F6E3
:1020E40056F644F545F566F666F777F777F777F72A
:1020F40077F767F766F766F755F644F455F666F62C
:1021040066F666F766F644F555F566F777F777F8F9
:1021140077F877F877F877F777F755F544F466F6B4
:1021240067F777F777F877F877F877F877F877F746
:1021340066F755F544F466F677F777F888F888F883
:1021440088F888F877F877F866F744F456F667F76E
:1021540077F777F777F755F544F567F777F888F861
:1021640088F877F877F877F877F755F544F466F652
:1021740067F777F777F877F877F877F877F877F7F6
:1021840066F755F544F466F677F788F888F888F822
:1021940088F888F888F877F877F744F456F677F7EC
:1021A40077F777F777F755F544F466F677F777F727
:1021B40077F777F777F766F766F655F544F455F64B
:1021C40066F667F777F777F777F777F777F766F7CE
:1021D40066F655F544F466F666F777F777F877F818
:1021E40077F877F877F877F766F644F455F566F7F5
:1021F40067F777F766F744F544F455F666F666F63E
:1022040066F666F666F656F655F644F444F455F565
:1022140055F666F666F666F666F666F666F656F6FB
:1022240055F644F544F455F555F666F666F766F743
:1022340066F766F766F766F655F544F445F555F620
:1022440066F666F655F644F433F344F455F555F55D
:1022540045F544F544F444F444F444F444F444F4B7
:1022640045F555F555F555F555F555F545F545F54A
:1022740044F444F444F444F444F444F545F545F595
:1022840044F555F555F545F544F444F444F444F463
:1022940044F545F544F433F344F444F444F444F489
:1022A40044F444F444F445F544F444F445F544F466
:1022B40044F444F444F444F444F444F444F444F45A
:1022C40045F445F544F444F444F444F444F434F457
:1022D40034F444F434F444F444F445F544F444F458
:1022E40044F444F444F444F455F667F777F777F785
:1022F40067F767F766F756F644F455F666F666F739
:1023040066F666F666F666F666F666F666F655F5FB
:1023140044F455F555F666F666F766F766F666F61E
:1023240066F666F655F644F445F555F555F566F644
:1023340066F666F656F644F555F566F777F777F8D8
:1023440077F877F766F755F644F466F677F777F794
:1023540077F877F877F877F777F777F766F756F639
:1023640044F455F566F666F777F777F777F877F874
:1023740077F877F777F755F544F466F666F677F766
:1023840077F767F766F755F545F566F666F777F775
:1023940077F777F766F755F644F455F666F777F767
:1023A40077F777F777F777F767F766F766F655F510
:1023B40034F455F566F666F767F777F777F777F746
:1023C40077F777F777F755F544F466F666F777F716
:1023D40077F767F766F745F544F466F666F666F749
:1023E40066F766F666F655F534F455F566F666F660
:1023F40066F666F766F766F766F766F666F645F517
:1024040033F355F566F666F666F666F766F766F72D
:1024140066F766F766F745F544F466F666F666F71A
:1024240066F766F666F644F444F455F556F666F631
:1024340066F655F655F544F534F444F455F555F57A
:1024440055F555F555F555F555F555F555F544F44A
:1024540033F344F445F555F555F555F655F655F66B
:1024640055F655F655F534F434F455F555F555F55A
:1024740055F655F555F534F444F444F444F444F471
:1024840044F444F434F434F444F433F333F333F3DE
:1024940033F333F333F333F333F334F434F434F402
:1024A40044F433F333F333F333F333F333F333F3E6
:1024B40033F333F333F333F344F433F333F334F4D4
:1024C40034F434F433F333F355F555F555F555F544
:1024D40055F545F545F455F555F555F555F555F5C9
:1024E40055F545F544F544F444F445F544F545F50E
:1024F40045F545F545F544F544F444F444F444F411
:1025040044F445F544F555F555F555F545F555F5BA
:1025140045F545F544F444F455F566F766F766F772
:1025240066F755F544F466F666F666F666F766F7FA
:1025340066F666F766F655F644F444F455F666F620
:1025440066F766F766F766F766F766F766F656F6B1
:1025540044F455F566F666F666F677F777F777F797
:1025640077F777F766F644F445F566F666F767F7A6
:1025740066F655F544F455F666F666F777F777F799
:1025840067F777F766F766F644F444F466F666F69A
:1025940067F777F777F777F777F767F766F766F60A
:1025A40044F445F566F666F667F777F777F777F755
:1025B40077F777F766F644F444F566F666F766F758
:1025C40066F645F544F455F566F666F767F777F76A
:1025D40066F766F766F655F644F444F455F666F67F
:1025E40066F767F767F767F766F766F766F666F6FE
:1025F40034F444F566F666F767F777F777F777F715
:1026040077F766F766F644F444F455F656F666F63C
:1026140055F644F534F455F556F666F666F666F660
:1026240066F666F656F655F544F444F455F555F554
:1026340056F666F666F666F666F666F666F655F5D8
:1026440034F444F455F556F666F666F666F666F620
:1026540056F655F655F544F444F455F555F555F547
:1026640055F544F434F444F455F545F544F444F58F
:1026740045F555F545F544F433F444F444F444F590
:1026840045F545F545F555F555F555F545F544F448
:1026940033F333F344F444F444F444F444F444F49A
:1026A40034F433F433F333F344F434F434F444F4CB
:1026B40034F434F444F444F444F444F444F444F476
:1026C40044F444F444F434F444F445F444F444F455
:1026D40044F434F434F434F434F444F444F444F476
:1026E40045F444F444F434F433F334F333F333F37C
:1026F40033F333F334F344F455F566F666F666F6CD
:1027040066F666F666F656F655F655F545F555F64B
:1027140066F666F766F766F666F666F666F655F6E4
:1027240045F555F566F666F766F766F777F767F7E2
:1027340066F766F755F555F566F666F666F766F7D5
:1027440066F766F766F644F544F466F677F777F7C6
:1027540077F877F877F777F766F755F534F455F6A1
:1027640066F677F777F777F777F766F766F655F64D
:1027740034F444F466F666F777F777F877F877F881
:1027840077F767F744F445F566F777F777F877F85E
:1027940077F877F766F744F444F455F666F677F776
:1027A40077F877F777F777F777F755F534F455F641
:1027B40066F667F777F777F777F766F666F655F50F
:1027C40034F445F566F666F677F777F877F877F731
:1027D40077F766F644F444F466F666F777F777F825
:1027E40077F777F766F644F444F455F556F666F64B
:1027F40066F766F766F766F766F755F534F455F647
:1028040066F666F666F766F766F766F656F655F503
:1028140033F344F466F666F777F777F766F766F707
:1028240066F766F644F444F466F666F666F767F708
:1028340066F766F666F644F434F444F444F545F574
:1028440055F555F555F545F544F544F433F344F49D
:1028540055F555F555F555F555F555F555F544F535
:1028640033F334F445F555F666F666F666F655F632
:1028740055F655F534F444F455F555F655F655F634
:1028840055F655F545F533F333F333F333F333F3B7
:1028940033F333F333F333F333F344F444F433F3E0
:1028A40033F333F333F333F333F344F444F433F3D0
:1028B40044F444F433F334F444F444F444F434F486
:1028C40034F333F344F444F444F444F434F434F487
:1028D40034F434F433F334F4000000000000000056
:1028E40000000000000000000000000000000000E4
:1028F40000000000000000000000000000000000D4
:1029040000000000000000000000000000000000C3
:1029140000000000000000000000000000000000B3
:1029240000000000000000000000000000000000A3
:102934000000000000000000000000000000000093
:102944000000000000000000000000000000000083
:102954000000000000000000000000000000000073
:102964000000000000000000000000000000000063
:102974000000000000000000000000000000000053
:102984000000000000000000000000000000000043
:102994000000000000000000000000000000000033
:1029A4000000000000000000000000000000000023
:1029B4000000000000000000000000000000000013
:1029C4000000000000000000000000000000000003
:1029D4000000000000000000000000301172000040
:1029E400000000000000000000000000000044049B
:1029F4006405330364053203430443040000000008
:102A04004404220200000000000000000000000056
:102A140000000000000000000000000000000000B2
:102A240000000000000000000000000000000000A2
:102A34000000000000000000000000000000000092
:102A44000000000000000000000000000000000082
:102A54000000000000000000000000000000000072
:102A64000000000000000000000000000000000062
:102A74000000000000000000000000000000000052
:102A84000000000000000000000000000000000042
:102A94000000000000000000001011812293328326
:102AA40011710000000000000000000000000000A0
:102AB400B64AA3C8A49881E6937793789397970925
:102AC400A90AB64AA549210286074203100100005B
:102AD40000000000000000000000000000000000F2
:102AE40000000000000000000000000000000000E2
:102AF40000000000000000000000000000000000D2
:102B040000000000000000000000000000000000C1
:102B140000000000000000000000000000000000B1
:102B240000000000000000000000000000000000A1
:102B34000000000000000000000000000000000091
:102B44000000000000000000000000000000000081
:102B54000000000000000000106122C333832292B1
:102B6400115232831172000000000000000054056D
:102B74006326937871F550F360F470F570F571F590
:102B8400B55AB489A3E9B3D99458D69BC57BB70A7F
:102B94007507650610010000000000000000000039
:102BA4000000000000000000000000000000000021
:102BB4000000000000000000000000000000000011
:102BC40011010000000000000000000000000000EF
:102BD40000000000000000000000000000000000F1
:102BE40000000000000000000000000000000000E1
:102BF40000000000000000000000000000000000D1
:102C040000000000000000000000000000000000C0
:102C140000000000000000402172329322A32152E0
:102C2400227222B2214222731182000000000000AD
:102C34009608C59B91F771F550F460F460F570F552
:102C440081F681E7A3E8B4F9A3F9B3F9B4FAC4FAB5
:102C5400C4AAC81CC93B64060000000000000000B0
:102C64000000000000000000000000000000000060
:102C74000000000000000000000000000000000050
:102C8400320385AA426511420000000000000000E2
:102C94000000000000000000000000000000000030
:102CA4000000000000000000000000000000000020
:102CB4000000000000000000000000000000000010
:102CC4000000000000000000000000000000000000
:102CD400000000000000115131F421A222422262BE
:102CE40022A21162226322921152327311811001C5
:102CF400740685179609C58BA3F981F660F560F50E
:102D040070F592F7A3F892E8B4F9A3F9B3F9C4FA09
:102D1400C4FAB4E9A3B9B3A9210200000000000079
:102D2400000000000000000000000000000000009F
:102D3400000000000000000000000000000000008F
:102D44002203A7BB95FB64F732F400600000000087
:102D5400000000000000000000000000000000006F
:102D6400000000000000000000000000000000005F
:102D7400000000000000000000000000000000004F
:102D8400000000000000000000000000000000003F
:102D94000001210222024404435554F631F411A2E5
:102DA4002252548532B3317353A522921152327395
:102DB4006396B4CAA3E881C682E671F660F550F45E
:102DC40050F471F5A3F8A3F892F8B4F9B4F9B3F98F
:102DD400C5FAB4F9A3F9B4F9C49A200100000000BB
:102DE40000000000000000000000000000000000DF
:102DF40000000000000000000000000000000000CF
:102E04003203A7BB95FB54F632F421C22182001091
:102E140000000000000000000000000000000000AE
:102E2400000000000000000000000000000000009E
:102E3400000000000000000000000000000000008E
:102E440000000000330375060000000000000000CD
:102E54000000A519D68CD78CD78C84D985FA43F574
:102E640011F322A372C672F652F440E34294119213
:102E74002242538552F581F681F660F550F450F301
:102E840050F371F592F7A3F9A3F8A3F8B4F9A3F9F1
:102E9400B4F9C5FBB4FAB3F9C4FAC5DA840800007E
:102EA400000000000000000000000000000000001E
:102EB400000000000000000000000000000000000E
:102EC4003203A7BC96FB54F621F311C2225232837B
:102ED400118100000000000000000000000000005C
:102EE40000000000000000000000000000000000DE
:102EF40000000000000000000000000000000000CE
:102F040000005406B73BB55AD68C52150000000099
:102F1400000000009428B3F9B4FAB3F9B5EAA6EBBB
:102F240085F943F511F341F451F462F531F351D4C9
:102F3400637622A2538573E662F582F781F661F522
:102F440060F471F6A3F8B4FAB4FAB4F9A3F8A3F8E8
:102F5400A3F8B4FAD6FBC5FBC4FAC4FAD5DB8618C9
:102F6400000000000000000000000000000000005D
:102F7400000000000000000000000000000000004D
:102F8400320396BB96FB54F621F321C2115122520F
:102F940032A322C300200000000000000000000053
:102FA400000000000000000000000000000000001D
:102FB400000000000000000000000000000000000D
:102FC400000000004204B47A81F692F7B4B9843761
:102FD400A52974162202B55AB4F992F8A3F8A3F8F5
:102FE400C5AAA6DB85FA43F521F431F362F551F461
:102FF40041F362E663A542E472F662F552F571F6B6
:1030040061F571F6A3F8B4F9B4FAB4FAA3F893F835
:10301400A3F8A3F9B4F9C5FBC5FBC5FBC5FBB57A99
:10302400100100000000000000000000000000008B
:10303400000000000000000000000000000000008C
:103044003203A7BB96FB64F732F411C21152226318
:1030540022A31172327321A20000000000000000BC
:10306400000000000000000000000000000000005C
:10307400000000000000000000000000000000004C
:103084000000000010016505A42992E760F4B3F97B
:10309400C4FAB3E992E7A479C59AA3F892F7A2F81F
:1030A400A3F8C4DAC5CAA5FB85FA43F521F452F5A1
:1030B40072F541F441F463B6539542F461F551F469
:1030C40041F461F492F7B4F9B4F9A4F993F892F8DD
:1030D400A3F9B4F9B4F9C4FAC5FBC5FAB4FAC4FA4D
:1030E400B63A0000000000000000000000000000EC
:1030F40000000000000000000000000000000000CC
:103104003203A7BC96FB64F732F421C22262225236
:1031140022A3218222522292229300510000000015
:10312400000000000000000000000000000000009B
:10313400000000000000000000000000000000008B
:10314400000000005305C91BC57AA3D9A3E881F781
:1031540081F6B3F9B3F992F870F570F592F792F736
:1031640092F8A3F8A3F9A3F8A3F995FB85FA53F60B
:1031740032F441F451F462F552E573E662F541F339
:1031840061F551F441F371F5A3F9A4F982F692F7CC
:10319400B3F9B3F9B4F9B4F9B4F9B4F9A3F8A2B82A
:1031A40096288608100100000000000000000000BE
:1031B400000000000000000000000000000000000B
:1031C4003203A7BB95FA64F732F421C31152225299
:1031D40032B31172225332B31161226321A200006F
:1031E40000000000000000000000000000000000DB
:1031F40000000000000000000000000000000000CB
:10320400000000001101A60AC4AAA2F8B4F9A3F8A8
:1032140092F892F792F792F792F8A3F881F682F770
:1032240092F792F7A2F8A3F8A2F892F793F895FB15
:1032340085FA43F531F441F461F572F652F562F51D
:1032440062F541F441F341F341F493F8A3F881F6B4
:10325400A2F8A3F9A3F9A3F8A3F893F892F792E7D5
:10326400A4985304000000000000000000000000C7
:10327400000000000000000000000000000000004A
:103284003203A7BC95FB64F732F521C211512252D7
:1032940022A32172226322A31152326321920010CD
:1032A400000000000000000000000000000000001A
:1032B400000000000000000000000000000000000A
:1032C4000000000000006406E87CA3F992F7A3F86C
:1032D400B4F9A3F992F792F782F781F692F792F88C
:1032E40092F792F792F8A2F8A2F892F792F781F681
:1032F40082F695FA85FA53F631F431F362F562F504
:1033040042F461F562F541F351F452F563F682F645
:1033140082F792F8A2F8A3F8B3F9B3E9B4A9A478B0
:1033240052054204000000000000000000000000FC
:103334000000000000000000000000000000000089
:103344003203A7BB95FB54F732F521C32162225205
:1033540032931182226232A32162226322920020DC
:103364000000000000000000000000000000000059
:103374000000000000000000000000000000000049
:1033840000000000000000006405E6ECC5FBB3F992
:10339400C5FAB4F992F892F782F671F671F671F5FE
:1033A40082F792F892F7A2F8A2F892F892F782F7CD
:1033B40071F561F572F695FA86FA43F521F441F454
:1033C40061F551F542F461F562F542F462F552F5A6
:1033D40041F481F692F792F792D892A79358C80BCA
:1033E400A80A8438513411010000000000000000D4
:1033F40000000000000000000000000000000000C9
:103404003203A7BB95FB64F732F421C21162225246
:1034140022A31182225232B311622253229200104B
:103424000000000000000000000000000000000098
:103434000000000000000000000000000000000088
:10344400000000000000000022027406C5AAC5FAAC
:10345400D6FCD6FCA3F982F782F782F671F671F5F1
:1034640071F592F792F892F7A2F892F792F782F731
:1034740071F661F561F460F461F485FA85FA53F646
:1034840021F431F361F461F542F462F562F541F43B
:1034940051F462F552F5A2F89388837770F560E4ED
:1034A40071D5829770F581E6A57985280000000022
:1034B4000000000000000000000000000000000008
:1034C400320397BB96FB54F632F421D311512252A6
:1034D40022B32182226322B311522263219200106B
:1034E40000000000000000000000000000000000D8
:1034F40000000000000000000000000000000000C8
:1035040000000000000000000000B72AA3B8B4C9FE
:10351400C5FAD5FBD6FCA4F982F782F782F681F6C8
:1035240071F571F692F792F892F792F792F781F6A5
:1035340071F561F560F460F450F450F361F595FAB7
:1035440085FA43F531F441F461F462F552F551F52D
:1035540052F552F462F552F562E6937881F660F51D
:1035640050F361D570F571F671F692F7C4CA850807
:103574000000000000000000000000000000000047
:103584003203A7BB96FB64F732F511C222522263C1
:1035940022A31172226322A32162226221920020BB
:1035A4000000000000000000000000000000000017
:1035B4000000000000000000000000000000000007
:1035C400000000000000000000001101B54AB3F93A
:1035D400A3F8B4FAC5FAC5FBC5FA92F782F682F6E7
:1035E40071F671F681F7A2F892F892F792F782F6E3
:1035F40071F571F560F440F250F350F360F481F624
:1036040082F695FA85FA53F621F331F372F662F5F0
:1036140042F451F451F442F451F462F541F471F678
:1036240060F450F471F581F671F671F581F6A3F842
:10363400D67B4304000000000000000000000000EE
:103644003203A7BB96FB54F721F421C32262225212
:1036540022A32182225222A32162226322920010F9
:103664000000000000000000000000000000000056
:103674000000000000000000000000000000000046
:103684000000000000000000000000009719D5EBC6
:10369400D6FCE7FDD6FBB5FAB4F9C5FAB4F992F74E
:1036A40082F771F681F682F782F781F692F792F744
:1036B40081F681F670F540F230F250F350F361F484
:1036C40081F671F561F595FA85FA43F521F442F432
:1036D40072F661F531F352F541F342F472F672F683
:1036E40041F450F460F470F581F693F892F8B4F96B
:1036F400B4FAB3D9B90A00000000000000000000C9
:103704003203A6BB96FB64F732F421C21151225254
:1037140032B31172225332B3115222632292002027
:103724000000000000000000000000000000000095
:103734000000000000000000000000000000000085
:103744000000000000000000000000000000A629A6
:10375400C4FAD6FBD6FCB4F9C5FAC5FAA3F8A3F8A3
:10376400A3F993F772F681F671F561F471F571F6C8
:1037740081F681F671F540F240F250F350F350F3C4
:1037840061F471F660F473F564F685F996FA43F51D
:1037940032F452F451F564F521F262F552F441F336
:1037A40062F552F441F460F560F592F7B4F9B4FAB5
:1037B400C4FAA3F9A3D8C67B4204000000000000A9
:1037C400320397BB95FB54F732F521C22152226391
:1037D40022A31172226222A3226222632192001088
:1037E40000000000000000000000000000000000D5
:1037F40000000000000000000000000000000000C5
:1038040000000000000000000000000000000000B4
:103814008427D6ECD6FCB4FAA3F8C5FAC5FBA3F802
:1038240082F682F682F772F671F560F460F460F461
:1038340060F471F671F530F230F150F340F350F367
:1038440060F471F571F650F374F786F896F996FB07
:1038540096FA43F521F331F321F254F543F551F48B
:1038640042F442F451F452F451F470F592F8A3F88E
:10387400B4F9A3F8A3F9C5FAA39920020000000043
:103884003203A7BB96FB54F621F411C222622252E2
:1038940032A32182225222A31162226321920020A8
:1038A4000000000000000000000000000000000014
:1038B4000000000000000000000000000000000004
:1038C40000000000000000000000000000000000F4
:1038D4007406D6CBC5FBA3F9A3F8A3F8B4FAB4FADB
:1038E400A3F882F671F671F550F450F460F460F4C4
:1038F40060F460F571F550F330F240F240F240F2BA
:1039040060F471F571F571F540F274F6B9FCCAFD15
:10391400A8FB85FA85FA43F521F353F565F753F5CA
:1039240042F472F673F652F462F551F551F492F7DB
:10393400A3F8B4F9B4FAC5FBB4FA83470000000055
:10394400320397BB95FB64F732F421C22152224221
:1039540022B32182225332B31162225222920010E6
:103964000000000000000000000000000000000053
:103974000000000000000000000000000000000043
:103984000000000000000000000000000000000033
:1039940000008608E78CC4BAB3E9A3F8A3F8B4F925
:1039A400B4F993F871F671F560F450F340F360F4F0
:1039B40060F460F460F560F440F340F240F230F2F9
:1039C40050F371F671F571F571F540F274F6DBFEA2
:1039D40097FA31F221F196FB85FA43F632F432F389
:1039E40031F241F452F572F673F652F572F662F55D
:1039F40062F5A3F8A3F9A4F9A3F9B3E985170000C4
:103A04003203A7BB96FB54F732F421C2215222633E
:103A140022A32172226322A3216232632292001024
:103A24000000000000000000000000000000000092
:103A34000000000000000000000000000000000082
:103A44000000000000000000000000000000000072
:103A54000000000000004304B70AA3B881F6B4F9DB
:103A6400B4F9A3F982F671F561F450F440F350F31C
:103A740060F460F450F460F450F340F340F230F238
:103A840040F361F581F671F650F350F340F285F797
:103A9400B8FB20F110F020F1A8FAB8FD85FA43F53F
:103AA40021F421F241F352F442F472F673F652F423
:103AB40051F441F452F481F682F781B6B73B220304
:103AC4002202A7BB96FB64F732F511C2215222628F
:103AD40022A32182226222A3216222632192002056
:103AE40000000000000000000000000000000000D2
:103AF40000000000000000000000000000000000C2
:103B040000000000000000000000000000000000B1
:103B140000000000000000001101B559A3F8A3F94A
:103B2400B4F9A3F882F671F561F560F450F350F33B
:103B340060F460F460F460F460F440F340F240F246
:103B440040F250F471F681F681F640F330F230F130
:103B540097F984F720F050F340F3DBFDB9FB74F9D7
:103B640096FB43F621F421F231F241F342F442F49C
:103B740032F321F332F322F331F331F331B222522F
:103B84002222A7BB96FB54F632F421C311522242DF
:103B940032A32182225232B3216222522293001094
:103BA4000000000000000000000000000000000011
:103BB4000000000000000000000000000000000001
:103BC40000000000000000000000000000000000F1
:103BD40000000000000000002102A569C5EBD5FB30
:103BE400C5FAA3F882F671F671F571F571F550F422
:103BF40060F460F460F550F450F450F340F240F295
:103C040030F241F361F481F670F540F240F230F1A4
:103C140030F2A8FA42F320F040F396F9FDFF64F67F
:103C240020F195FA86FA43F521F421F221F221F2EA
:103C340022F222F332F322F322F311F211F100F112
:103C440000F074F896FB64F732F411C22162225238
:103C540022A31172226222B32162326321920010E4
:103C64000000000000000000000000000000000050
:103C74000000000000000000000000000000000040
:103C84000000000000000000000000000000000030
:103C940000000000000000000000A619C4DAB3F917
:103CA400B3F9B3F992F771F571F681F692F761F50C
:103CB40060F460F460F460F450F350F340F340F2C5
:103CC40030F240F251F451F371F660F541F341F2F0
:103CD40010F053F4ECFE20F140F3A8FBA9FB52F5DD
:103CE40030F140F230F295FA96FA53F632F511F2C9
:103CF40011F122F332F322F332F332F321F310F110
:103D040010F174F896FB54F742F521E32162225234
:103D140032A32182226222A3116222632292002012
:103D2400000000000000000000000000000000008F
:103D3400000000000000000000000000000000007F
:103D4400000000000000000000000000000000006F
:103D54000000000000000000000000003102B4690F
:103D6400B3E9B3F9B3F982F772F692F792F771F601
:103D740050F350F450F350F350F350F350F340F336
:103D840040F230F251F341F341F261F560F551F440
:103D9400A6FA20F100F097F998FA75F765F730F272
:103DA40061F571F550F472F572F685FA96FA43F6F8
:103DB40021F411F221F232F332F332F432F422F329
:103DC40021F274F896FB54F721F421F211F221E365
:103DD40032C32172226332B3216222522292001032
:103DE40000000000000000000000000000000000CF
:103DF40000000000000000000000000000000000BF
:103E040000000000000000000000000000000000AE
:103E1400000000000000000000000000000000009E
:103E24009428B3F9A3F9B3F9B4F9A3F892F771F5A7
:103E340050F350F350F350F350F350F350F350F366
:103E440040F340F240F351F340F241F251F460F494
:103E540020F1A8FA73F600F042F3FEFF75F810F1B2
:103E640071F5A3F861F561F482F700F011F185FAB8
:103E740085FA43F531F421F221F232F343F432F4BA
:103E840022F353F696FB64F732F421F321F222F382
:103E940022F321F322B3229321622263229200109F
:103EA400000000000000000000000000000000000E
:103EB40000000000000000000000000000000000FE
:103EC40000000000000000000000000000000000EE
:103ED40000000000000000000000000000000000DE
:103EE40000008608C5AAB3F9B4F9B4F993F892F7B7
:103EF40071F550F350F350F350F350F350F350F383
:103F040050F340F340F240F341F340F241F340F305
:103F140060F430F197F9A7FA20F110F298FAA8FBAF
:103F240020F161F541F330F140F321F210F100F09A
:103F340011F185FA95FA53F631F411F221F222F3D4
:103F440022F321F343F454F631F422F332F332F43E
:103F540032F332F432F322F311C2226321920010BD
:103F6400000000000000000000000000000000004D
:103F7400000000000000000000000000000000003D
:103F8400000000000000000000000000000000002D
:103F9400000000000000000000000000000000001D
:103FA400000000004304D84BB3FAC4FAC4FAB4FACC
:103FB400A2F861F550F460F450F340F340F350F389
:103FC40040F340F230F240F240F340F230F240F37A
:103FD40040F250F430F175F6B9FC20F310F231F4EC
:103FE400DBFE43F530F120F120F221F321F221F23E
:103FF40021F211F111F285FA95FA43F531F411F237
:1040040000F110F122F354F632F422F333F443F4C2
:1040140043F433F443F432F321F321F221E2002098
:10402400000000000000000000000000000000008C
:10403400000000000000000000000000000000007C
:10404400000000000000000000000000000000006C
:10405400000000000000000000000000000000005C
:104064000000000000000000A509D55BB4B9B4B994
:10407400B4AA82E661F571F560F450F340F240F2BF
:1040840030F230F120F120F030F140F230F230F231
:1040940041F340F350F320F187F8A9FB10F220F22A
:1040A40010F097F987F920F132F332F432F332F356
:1040B40043F443F543F532F332F363F732F343F554
:1040C40031F454F576F865F732F432F465F765F7B0
:1040D40044F554F554F633F443F532F432F322F351
:1040E40032D3102100000000000000000000000096
:1040F40000000000000000000000000000000000BC
:1041040000000000000000000000000000000000AB
:10411400000000000000000000000000000000009B
:1041240000000000000000003203B57AB3D9A2E811
:1041340081D671D571F581F671F650F340F330F202
:1041440030F120F120F120F020F120F130F130F1B4
:1041540040F351F340F330F220F1DCFD76F810F235
:1041640020F110F053F586F942F443F554F665F75F
:1041740076F865F754F565F765F743F521F210F124
:1041840011F276F8CBFEB9FD86FB32F565F787F9B7
:1041940098FA98FA76F744F565F765F743F564F607
:1041A40064F754F643E521220000000000000000FB
:1041B40000000000000000000000000000000000FB
:1041C40000000000000000000000000000000000EB
:1041D40000000000000000000000000000000000DB
:1041E40000000000000000007607B57A92F892F80B
:1041F400A3F892F892F792F792F761F540F240F241
:1042040030F230F120F120F120F120F130F130F2E0
:1042140040F261F450F330F210F064F5FEFF31F433
:1042240010F110F010F064F686F975F875F886F957
:10423400A8FB97F965F787F865F665F775F843F510
:1042440032F421F276F9A8FC86FA85FA32F587F879
:1042540098F9A9FABAFC98FA76F876F865F698FA15
:10426400A8FB97FA86F975F865C7100100000000ED
:10427400000000000000000000000000000000003A
:10428400000000000000000000000000000000002A
:10429400000000000000000000000000000000001A
:1042A40000000000000000000000B61AC4FAA2F8E2
:1042B40092F892F892F892F892F892F882F771F5DF
:1042C40050F330F230F220F120F120F130F140F2DD
:1042D40040F350F471F550F430F210F0DCFDB9FB0A
:1042E40010F210F010F020F198FA86F975F886F9BA
:1042F40098FA87F965F687F876F754F665F754F671
:1043040064F743F532F442F675F975FA43F622F38D
:1043140086F886F887F998FAA9FB98FA65F797F969
:10432400A9FB98FA97FA97FA76F886F932430000CF
:104334000000000000000000000000000000000079
:104344000000000000000000000000000000000069
:104354000000000000000000000000000000000059
:10436400000000000000000000001101A478A2F881
:10437400A2F892F8A3F8A2F8A3F8A3F892F8B3F974
:1043840092F740F230F230F230F130F120F140F2A5
:1043940050F350F350F470F560F530F175F7FEFF0B
:1043A40064F710F110F010F086F8CAFD65F764F7B1
:1043B40065F764F743F565F754F643F564F643F59A
:1043C40043F443F543F532F432F532F421F310F2B9
:1043D40032F465F764F775F865F775F876F876F8EA
:1043E40076F875F865F764F765F764F775F843646C
:1043F40000000000000000000000000000000000B9
:1044040000000000000000000000000000000000A8
:104414000000000000000000000000000000000098
:104424000000000000000000000000002102A3883A
:1044340081F671F6A3F8A3F9B4F9B4F9A3F892F7E5
:10444400A3F981F640F240F240F220F120F030F17D
:1044540030F340F461F550F460F450F352F4FDFF8E
:10446400CAFC42F510F110F042F3ECFE86F843F575
:1044740043F543F432F343F533F433F443F532F4C0
:1044840033F443F532F421F332F454F532F321F3E7
:1044940021F331F442F564F795FB64F732F443F504
:1044A40043F543F543F443F443F443F443F453F53D
:1044B4003264000000000000000000000000000062
:1044C40000000000000000000000000000000000E8
:1044D40000000000000000000000000000000000D8
:1044E4000000000000000000000000000000520472
:1044F400A3D840F381F6A3F9A3F9B3F9A3F892F88A
:1045040081F781F771F550F440F240F340F320F164
:1045140030F140F320F361F560F450F351F3DBFD27
:10452400EDFEA8FB43F510F100F075F7CAFD20F38A
:1045340032F322F322F332F322F332F332F432F37E
:1045440032F332F432F321F332F454F742F411F13A
:1045540011F110F100F111F242F575F896FB43F5F3
:1045640011F122F221F222F222F222F222F322F3B8
:1045740032F411620000000000000000000000009E
:104584000000000000000000000000000000000027
:104594000000000000000000000000000000000017
:1045A4000000000000000000000000000000000007
:1045B4002102929781F6A3F9A2F8A3F8A3F8A3F82D
:1045C40092F881F671F560F471F561C561A550F357
:1045D40040F340F240F320F231F471F540F286F8F2
:1045E400FEFFB9FBA8FA53F610F110F0B9FB86F9F7
:1045F40010F021F121F221F221F222F321F321F230
:1046040021F322F321F221F332F464F796FB42F50D
:1046140000F000F110F110F111F221F332F575F808
:1046240096FB42F500F111F210F211F211F211F2BF
:1046340011B221A21141000000000000000000009E
:104644000000000000000000000000000000000066
:104654000000000000000000000000000000000056
:104664000000000000000000000000000000000046
:1046740000002102B56AB3F9A2F8A2F892F8B3F9DE
:10468400B4F992F771F671F560F460F493A871B51A
:1046940040F250F340F350F330F310F241F440F39E
:1046A40097F9DBFD64F775F764F710F120F1DCFE90
:1046B40064F610F021F220F121F332F432F521F303
:1046C40032F321F421F321F322F464F796FB63F827
:1046D40021F331F431F531F431F431F421F321F3E0
:1046E40032F475F8A6FB42F610F221F431F542F6E5
:1046F40042F710320000000000000000000000003B
:1047040000000000000000000000000000000000A5
:104714000000000000000000000000000000000095
:104724000000000000000000000000000000000085
:104734000000000000008517B3F992F8A2F892F87F
:10474400B4F9B4FAC4FAC4FAB4FA71F660F481E6BE
:10475400936760F492F793A860F572C652C510F29D
:1047640020F332F442F520F242F553F621F365F7D3
:10477400A9FB32F420F231F221F232F442F632F49F
:1047840032F432F532F431F442F564F796FB74F9FD
:1047940042F653F863F853F742F642F542F532F520
:1047A40021F321F443F575F8A6FB53F631F553F7DD
:1047B40063F974FA32650000000000000000000094
:1047C40000000000000000000000000000000000E5
:1047D40000000000000000000000000000000000D5
:1047E40000000000000000000000000000000000C5
:1047F40000000000000000009508C4BA92F892F886
:10480400B3E9B4EAB4FAD5FBB3F9A3F992F7725554
:104814004234A70AA479B64AB80BA629A529B559E2
:1048240030F310F220F210F220F320F321F321F3FD
:1048340075F864F621F331F241F342F442F632F5AD
:1048440032F432F531F421F332F464F796FB74F95F
:1048540053F874F974F974F843F643F553F732F4E2
:1048640032F431F421F331F432F475F8A6FB53F742
:1048740052F774F995FB5387000000000000000014
:104884000000000000000000000000000000000024
:104894000000000000000000000000000000000014
:1048A4000000000000000000000000000000000004
:1048B400000000000000000000002202A709B4C9A3
:1048C400B4A9C72BB49AD6ABD77C81E692A7B63AE3
:1048D400A619210200008507A56882C7A398A3D85A
:1048E40091F761F510F220F330F310F210F220F397
:1048F40020F321F321F341F451F452F562F632F43A
:1049040032F432F531F421F332F454F796FB74F9AE
:1049140053F763F874F974F953F664F853F643F6ED
:1049240053F632F432F421F311F221F332F475F830
:1049340096FB63F863F885FA63A8000000000000A2
:104944000000000000000000000000000000000063
:104954000000000000000000000000000000000053
:104964000000000000000000000000000000000043
:104974000000000000000000000000000000010032
:10498400950963058608DC0D86087606C92BC81BC5
:10499400A48881E6A4683203724670F581F6A2F811
:1049A400A3F8A2F881F740F320F271F592F730F3FF
:1049B40010F310F221F331F452F552F572F641F48A
:1049C40032F432F521F421F332F464F796FB74F9EE
:1049D40052F763F863F863F852F741F542F553F67A
:1049E40032F443F542F631F421F311F311F221F4D8
:1049F40042F575F896FB64F974F973C90000000078
:104A040000000000000000000000000000000000A2
:104A14000000000000000000000000000000000092
:104A24000000000000000000000000000000000082
:104A34000000000000000000000000000000000072
:104A440000000000000000006506C80A85279709D9
:104A5400B4AA60F460F471F5937782C760F492F7B6
:104A6400A2F8A2F8A3F992F770F550F371F6D5FB0A
:104A740093F820F241F462F562F552F572F662F5AC
:104A840042F431F421F321F332F454F796FB74F930
:104A940042F663F863F853F842F577F899FA87F821
:104AA40065F665F642F542F532F521F321F321F37B
:104AB40011F221F332F475F896FB74F963E80001FE
:104AC40000000000000000000000000000000000E2
:104AD40000000000000000000000000000000000D2
:104AE40000000000000000000000000000000000C2
:104AF40000000000000000000000000000000000B2
:104B0400000000000000000000006305C59A70E684
:104B1400839781E660F460F460F440F271F592F7F3
:104B2400B4F9A2F8A3F8B4F9A3F892F782F7A3F8BA
:104B3400C5FAA4F941F483F773F652F583F752F5F5
:104B440052F441F411F321F332F464F796FB74F94F
:104B540042F652F763F863F852F732F599F955F5CE
:104B640055F633F344F564F842F532F432F521F3A3
:104B740021F321F311F221F432F475F896FB74F960
:104B84000011000000000000000000000000000010
:104B94000000000000000000000000000000000011
:104BA4000000000000000000000000000000000001
:104BB40000000000000000000000000000000000F1
:104BC40000000000000000005405A538C57BC4FAAD
:104BD40071F560F470F561F671F661F560F460F4F6
:104BE400A3F9B4F9A3F8A3F9B4F9B3F9A3F8A3F8B2
:104BF400B4F9A4F963F573F762F552F582F752F448
:104C040052F461F531F321F322F454F796FB74F96D
:104C140052F753F863F874F963F852F732F576F7FC
:104C240011F222F321F232F353F653F642F532F540
:104C340031F421F322F421F321F221F332F475F853
:104C440096FB7568000000000000000000000000F2
:104C54000000000000000000000000000000000050
:104C64000000000000000000000000000000000040
:104C74000000000000000000000000000000000030
:104C8400000000000000000000007406D59BB4FA88
:104C9400D6FBC4FA93F892F793F9A5FA94F992F82B
:104CA40092F8B3F9B4F993F8A3F9B4F9A3F8A2F814
:104CB400B3F993F863F683F772F652F472F652F589
:104CC40051F451F451F421F332F564F796FB74F97D
:104CD40053F763F863F863F874F963F852F742F52D
:104CE40077F832F343F422F344F554F742F553F6DC
:104CF40032F532F431F421F332F421F321F221F3C9
:104D040043F575F8A6FC755800000000000000008B
:104D1400000000000000000000000000000000008F
:104D2400000000000000000000000000000000007F
:104D3400000000000000000000000000000000006F
:104D44000000000000000000000000004204B48ADB
:104D5400A3F8B4F9C4FAB3F982F671F6B6FCA5FB6C
:104D640093F9A3F9A3F9B4F992F793F8A3F9A3F982
:104D7400B3F993F862F583F773F652F583F752F5B6
:104D840042F472F661F521F332F464F796FB84FA87
:104D940063F863F963F863F863F874F964F963F822
:104DA40042F677F832F443F432F344F474F952F6E9
:104DB40043F553F732F532F432F421F321F421F3BD
:104DC40021F321F432F474F8A6FC755800000000B5
:104DD40000000000000000000000000000000000CF
:104DE40000000000000000000000000000000000BF
:104DF40000000000000000000000000000000000AF
:104E04000000000000000000000000000000530546
:104E1400B4CA92F8B3F9A3F881F681F660F494F970
:104E2400A5FB94FA93F882F781F671F592F7A3F84B
:104E3400B4FA93F863F583F773F653F583F762F5E1
:104E440063F583F762F642F432F464F796FB85FA6D
:104E540074F974F974F974F963F863F874F974F90A
:104E640063F842F677F832F332F422F344F464F848
:104E740063F963F743F542F632F432F431F421F383
:104E840032F431F421F421F332F475F8A6FC7558A8
:104E9400000000000000000000000000000000000E
:104EA40000000000000000000000000000000000FE
:104EB40000000000000000000000000000000000EE
:104EC40000000000000000000000000000000001DD
:104ED4004303B539A2F8A3F992F8A2F892F781F640
:104EE400A3F9A5FB93FA94FA82F761F561F592F7B9
:104EF400A3F993F863F684F873F653F583F762F530
:104F040063F683F773F621F332F464F896FB85FABB
:104F140085FA85FA74F974F974F963F863F874F925
:104F240074F963F852F773F834F373F931F445F50F
:104F340066F873F974FA53F742F542F632F432F52F
:104F440032F432F432F432F532F532F442F564F8E4
:104F5400A6FC7658000000000000000000000000DD
:104F6400000000000000000000000000000000003D
:104F7400000000000000000000000000000000002D
:104F84000000000000000000000000001101C66ADB
:104F9400B74BC64BB589B4F9B3F9A3F8A3F8A3F892
:104FA400B4F9A3F993F894FA94FA94F961F571F5C4
:104FB400A3F893F862F583F783F753F584F762F562
:104FC40052F583F762F531F432F454F796FB85FA1F
:104FD40085FA85FA84FA74F974F974F963F863F854
:104FE40074F974F963F864F975FA76F996FB74F94F
:104FF40074FA74FA74FA74F974F953F743F653F6BD
:1050040042F532F532F432F432F542F632E411E28A
:1050140032F575F8A6FC8659000000000000000077
:10502400000000000000000000000000000000007C
:10503400000000000000000000000000000000006C
:1050440000000000000000000000000000009608BE
:10505400E6CCD6FCD5CBD6FCD5FBB4FAA3F9A3F8A1
:10506400B3F9B4FA81F671F6A4FA94FBA5FB83F8BC
:1050740082F793F752F583F773F753F594F863F6D1
:1050840052F596F952F521F232F464F796FB74F96D
:1050940085FA96FB95FB85FA74F974F974F963F84B
:1050A40063F974F974F974F963FA63F963FA63F9E7
:1050B40063F963F963F974FA74F974F974F953F7D9
:1050C40043F553F642F532F442F532F542F553E630
:1050D400218231E432F575F8A6FC76580000000010
:1050E40000000000000000000000000000000000BC
:1050F40000000000000000000000000000000000AC
:10510400000000000000000000000000000001009A
:10511400C75AE6FCD6FCD5FBC5FBB4FAC5FAB4FA0B
:10512400A3F8B3F9A3F871F571F693F9A5FB94FB11
:10513400A4FA83F862F683F773F663F594F863F5DB
:1051440063F697F976F821F332F564F795FB63F784
:1051540052F796FB96FB95FB85FA74F974F974F98A
:1051640063F874F974F974F974FA74FA63F963F806
:1051740063F963F963F963F984FA84FA74F974F9E5
:1051840073F953F742F553F642F542F542F642F508
:1051940043F63273117121E343F575F8A6FC755893
:1051A40000000000000000000000000000000000FB
:1051B40000000000000000000000000000000000EB
:1051C40000000000000000000000000000000000DB
:1051D4005315E6ECC5FBB4FAC4FA93F8A3F8A2F8A5
:1051E400A3F9A3F8A3F881F681F681F693F8A4FA5B
:1051F40094FBA4FB84F983F873F753F584F863F6FE
:1052040063F697F986F821F332F464F796FB84FA8F
:1052140062F773F896FB96FB95FA85FA74F974F9BC
:1052240074F963F863F874F874F974F974FA74FA35
:1052340073FA73FA73FA73FA74FA84FA84F974F9E0
:1052440074F973F974F953F743F553F642F542F5DB
:1052540053F742F522932242217231E442F575F864
:10526400A6FC7658000000000000000000000000CA
:10527400000000000000000000000000000000002A
:10528400000000000000000000000000000000001A
:105294000000D6BBC5FB92F8C4FAB4FA82F781F6D3
:1052A40081F792F782F682F660F471F692F8B4F917
:1052B400B4FAA4FA94FAA5FB94F963F694F873F695
:1052C40063F686F954F521F332F464F796FB73F828
:1052D40084F995FA74F996FB96FB85FA84FA74F9C5
:1052E40074F974F963F874F974F974F984FA85FA41
:1052F40085FA85FA85FA85FA85FA85FA85FA84FAB3
:1053040074F974F973F974F984FA63F743F553F78C
:1053140043F642F553F732C422832242217221E339
:1053240042F575F8A6FC7558000000000000000066
:105334000000000000000000000000000000000069
:105344000000000000000000000000000000000059
:1053540000000101C68B91F792F8C5FBC4FA91F7DE
:1053640081F7A3F871F650F361F550F371F5B3F9D1
:10537400B4FAB4FA93F994FAA5FB95F994F862F5A2
:1053840063F686F921F220F232F464F796FB94FA7C
:1053940093F995FBA5FA95FA96FB96FB85FA84FAA0
:1053A40074F974F974F963F874F974F974F985FA91
:1053B40085FA85FA85FA85FA85FA85FA85FA85FAF1
:1053C40084FA74F974F974F974F974F984FA63F762
:1053D40043F553F743F653F642A521923283224212
:1053E400116131F442F575F8A6FC855900000000FE
:1053F40000000000000000000000000000000000A9
:105404000000000000000000000000000000000098
:10541400000000000000835792F7A3F8C5FAA3F92F
:1054240092F8A3F9B4E992E760F460F450F360F4FD
:1054340092F7B4F9B3F992F893FAA6FB94F963F6E8
:1054440076F8A7FA76F821F232F464F796FB94F929
:10545400B3F9A4FAA5FBB5FB95FB96FB96FB85FA7D
:1054640084FA74F974F974F963F974F974F974F9D0
:1054740085FA85FA84FA85FA85FA85FA85FA85FA31
:1054840085FA84FA74FA74F974F974F984FA84FA6A
:1054940084FA63F743F664F843F632C42242229254
:1054A40022731142117121E332F464F8A6FC865987
:1054B40000000000000000000000000000000000E8
:1054C40000000000000000000000000000000000D8
:1054D4000000000000000000A4A8A3F860F5A4F9EF
:1054E400D6FBA3F9A3E8A3D881F671F660F461F4BE
:1054F40071F592F7A3F892F892F782F782F763F7BF
:1055040055F686F875F732F411F354F796FB73F8F1
:10551400A3F8C5FBA5FBA5FBB4FA95FB96FB95FB8D
:1055240085FA84FA74F974F974F973F974F974F9ED
:1055340074F984FA74F963F963F863F973F974F923
:1055440085FA85FA84FA74FA74F974F974F984FAA8
:1055540085FA84FA85FA64F853F664F842F53293CE
:10556400214222A222832242218211E222F364F800
:10557400A6FC75581101412420020000000000001F
:105584000000000000000000000000000000000017
:10559400000000000000000000006235939793A70C
:1055A40092F7E6ECB4DAA3E9A3F882F781F671F591
:1055B40071F571F681F693F894F871F560F5A4F835
:1055C40085F831F320F120F221F354F696FB63F6CB
:1055D40061F4C4FAB5FBA5FBB5FBA4FA96FB96FBF4
:1055E40096FB85FA84FA74F974F974F973F974F909
:1055F40074F974F974F953F742F554F654F654F601
:1056040054F763F874F984FA74FA74F974F973F951
:1056140084FA85FA85FA84F995FB74F854F653D71D
:10562400217232932152219222932152117221F339
:1056340022F365F895FB82A84134000000000000C5
:105644000000000000000000000000000000000056
:105654000000000000000000000000000000210124
:1056640032037336C4AAA3E9A4FBB5FB93F892F7FB
:1056740081F681F681F671F581F6A5F9A8FBA7FA02
:1056840097F942F340F431F332F464F796FB85FA68
:1056940020F251F4B4FAA4FBA4FBB4FBA4FA96FBE5
:1056A40096FB95FB85FA84F974F984FA74F974F914
:1056B40074F974F974F974F941F598F9AAFA99F935
:1056C40099F999F964F763F884FA84FA74F974F926
:1056D40074F984FA85FA85FA85FA74F895FB74F8F6
:1056E40053F6226311823293215221A23283225330
:1056F400117221E342F581F84154000000000000DA
:105704000000000000000000000000000000000095
:105714000000000000000000000000000000000085
:1057240000000000A559C4FAB4F9A4F9B6FCA4FA1F
:10573400A3F992F781F681F782F681F681F672F683
:1057440051F440F240F250F432F564F795FB73F7EC
:1057540053F631F430F393F9A5FBA4FBA3F994FABF
:1057640096FB96FB95FB85FA84F974F974F974F940
:1057740074F974F974F974F974F942F677F721F24B
:1057840021F210F132F364F753F874FA84FA74F9DD
:1057940074F973F974FA85FA85FA85FA84F873F75B
:1057A40096FB74F82293224221922293224222A24F
:1057B40022831232318380F852F611110000000066
:1057C40000000000000000000000000000000000D5
:1057D40000000000000000000000000000000000C5
:1057E400000000006405C4EAB3F9A3F9A3F9B4FA0C
:1057F400A4FB94FBA4FA82F781F792F781F692F75F
:1058040071F650F350F450F340F340F471F672F72C
:1058140040F220F130F482F7A4FAA5FBA4FBA3F92B
:1058240094FA96FB96FB95FA85FA84F974F974F95F
:1058340074F974F974F974F974F974F942F677F82F
:1058440033F443F432F343F464F753F874FA84FA08
:1058540074F974F973F974F985FA85FA85FA95FA85
:1058640073F673F796FC429522922252218232A358
:1058740021521192328381D850D60040000000009A
:105884000000000000000000000000000000000014
:105894000000000000000000000000000000000004
:1058A4000000000000006226D5FBB4FAA3F8A3F9B7
:1058B400C4FAB5FBA5FBA5FBA4FA92F892F782F70C
:1058C40081F771F660F450F350F340F250F471F63E
:1058D40081F661F482F7B3F9A3F9A3F9B5FBB5FB3B
:1058E400B3F995FA96FB96FB95FA85FA84F974F95F
:1058F40074F973F974F974F974F974F974F942F672
:1059040077F833F433F432F333F364F763F884FA57
:1059140085FA84FA74FA74F974F985FA85FA85FAC1
:1059240085FA95F962F585FA42560030329322538E
:1059340011822283225261F681E8001100000000E6
:105944000000000000000000000000000000000053
:105954000000000000000000000000000000000043
:1059640000000000000000003102C5CAB4E9C4DA36
:10597400D5FBD5FBD5FBC5FCA4FB94FBA4FA93F89B
:1059840071F681F671F660F650F440F240F260F47C
:1059940081F781F682F7B4FAC5FAA3F8A3F8A3FA5B
:1059A400B4F9B4FA95FA96FB96FB85FA84FA74F97D
:1059B40074F974F973F974F974F974F974F963F88E
:1059C40062F974F844F473F941F445F555F763F852
:1059D40084FA85FA74FA74FA74F974F985FA85FA12
:1059E40085FA85FA96FB84F773F653870000005115
:1059F4002293225322A351E591F95155000000004E
:105A040000000000000000000000000021026136D8
:105A14001001000000000000000000000000000071
:105A24000000000000000000000000008417D6DC25
:105A3400D6FBD5FBD5FBD5FBB4FAA4FAA4FBA5FB96
:105A440082F771F560F460F471C670F760F570F573
:105A540071F692F892F7A3F8B4F9A3F992F7A3F9BF
:105A640092F8B3F9A4F995FA96FB96FB85FA84FAB1
:105A740074F974F974F963F974F974F974F974F9CB
:105A840074F974FA75FA76F996FB74FA74FA64F98F
:105A940063F984FA85FA84FA74F974F974F985FA65
:105AA40085FA85FA85FA95FB95F973F652A50000F7
:105AB4000000104122A2205280F881C8000000009A
:105AC400000000000000000000000000513581D8F3
