:020000040800F2
:100000000000012095090008C5070008C70700087F
:10001000C9070008CB070008CD0700080000000052
:10002000000000000000000000000000CF070008F2
:10003000D107000800000000D3070008D50700081A
:10004000E5090008E5090008E5090008E5090008D8
:10005000E5090008E5090008E5090008E5090008C8
:10006000E5090008E5090008E5090008E5090008B8
:10007000E5090008E5090008E5090008E5090008A8
:10008000E5090008E5090008E5090008000000008E
:10009000000000000000000000000000E50900086A
:1000A000E5090008E5090008E5090008E509000878
:1000B000E5090008E5090008E5090008E509000868
:1000C000E5090008E5090008E5090008E509000858
:1000D000E5090008E5090008E5090008000000003E
:1000E000E5090008E5090008E5090008000000002E
:1000F000000000000000000000000000E50900080A
:1001000000000000E5090008E5090008E50900080D
:1001100000000000000000000000000000000000DF
:10012000E5090008E5090008E5090008D907000805
:10013000E5090008000000000000000000000000C9
:10014000000000000000000000000000E5090008B9
:10015000E5090008E5090008E5090008E5090008C7
:10016000E5090008E50900080000000000000000A3
:10017000000000000000000000000000000000007F
:1001800000000000E5090008000000000000000079
:04019000E509000875
:1001940010B5054C237833B9044B13B10448AFF3BD
:1001A40000800123237010BDB40000200000000073
:1001B4002019000808B5034B1BB103490348AFF3EA
:1001C400008008BD00000000B800002020190008CD
:1001D400054B1A6B02431A631B6B82B018400190E3
:1001E400019B02B0704700BF0038024000F00700D6
:1001F400C0F10702031D042A28BF0422062B4FF076
:10020400FF3303FA02F38CBF0338002021EA030111
:1002140001FA00F0704700002C4A136823F007032A
:1002240043F0020310B51360136803F00703022BB5
:10023400FAD1274A136823F4404343F4004313607C
:10024400244B1A6842F480321A601A689103FCD570
:100254001A68214942F400221A605A6811401F4A60
:100264000A435A605A6822F440325A601A6842F0CB
:1002740080721A60174B1A689201FCD59A68154C63
:1002840022F0F0029A609A6822F4E05242F480521A
:100294009A609A6822F460429A609A6822F0030293
:1002A40042F002029A60A36803F00C03082BFAD10F
:1002B4000B4801F0DFFA0A4801F0FEFAD4F88C305A
:1002C40023F08073C4F88C3010BD00BF003C0240A2
:1002D40000700040003802400080BFFF192A40002F
:1002E40000BD01052DE9F04FDA4BDFF894B3DA4D88
:1002F400DFF89093D94EADF2F46D1A6842F40072AF
:100304001A601A6842F480621A601A6842F48072B1
:100314001A60DBF8443043F48043CBF84430DBF814
:10032400443010AF03F48043FB61FB69DBF84030D9
:1003340043F08053CBF84030DBF8403003F0805377
:10034400BB61BB69EA68C64B22F4E0621204120C7A
:100354001343EB60E8680F21C0F30220FFF746FF68
:100364000001C0B285F82300FFF756FF18220021D0
:1003740007F1600001F0CAFA8020FFF729FF01208D
:10038400FFF726FF02204FF00208FFF721FF1C238E
:1003940000244FF0010AC9F8183007F16001C6F8CB
:1003A40018800C234846C7E9183AC7F86880C7E99B
:1003B4001B4401F07DF8102307F160014846C7E9AA
:1003C400183AC7E91A84C7F870A001F071F807F168
:1003D40060013046C7E9188AC7E91A84C7F870A0D3
:1003E40001F066F84FF48000FFF7F2FEE86841463A
:1003F400C0F30220FFF7FAFE9A4B0001C0B24FF09F
:10040400006207F13C0583F83B0321465A6007F17B
:100414006000282201F07AFA18222146284601F0C9
:1004240075FADBF8443043F48053CBF84430DBF8FE
:10043400443003F480533B6250463B6AFFF7C8FEE6
:100444004046FFF7C5FEA023C5E900380323C5E9EC
:10045400023405236B6129462C61484601F028F8D3
:100464001023C5E900380323C5E9023430460523C7
:1004740006F5C0466B6129462C6101F019F8B36D8D
:10048400794823F0606343F0C063B365B36D23F030
:10049400C00343F04003B365B36D23F44033B36545
:1004A400B36D23F49073B365B36D23F40073B36534
:1004B400B36D43F48063B365B36D23F4C05343F465
:1004C4000063B365B36D23F4C04343F40053B365D1
:1004D400F36E23F00403F3664FF482724FF4006367
:1004E400C7E919234FF40073C7E91D3407F160010C
:1004F4000A23C7F88430C7E91B44C7E91F443C6694
:1005040001F074F8584A536823F0100353602146ED
:10051400142207F1280001F0F9F92022214607F1FD
:10052400600001F0F3F918222146284601F0EEF9A3
:10053400DBF8403043EA0803CBF84030DBF84030C6
:1005440003EA08037B62ABF50D3B7B6A40F2E733B9
:100554003B8507F12801D12358463B6301F076F827
:10056400DBF8003023F08003CBF800304FF08043F9
:100574005146D3F8182442F00802C3F81824602224
:1005840007F16003C7E918246922C7E91B24584608
:100594001A46BC6601F0A6F84FF080435046D3F8E3
:1005A400182422F00402C3F81824DBF8043023F0E2
:1005B4007003CBF80430DBF8083023F08003CBF869
:1005C4000830FFF705FE4023C5E90038C5E90448B3
:1005D4002946C5E90244484600F06AFF234BC5F8A2
:1005E40014900FCB07F1280C8CE80F000323C5E906
:1005F400023908232B821C4AC5F81C9004232B8340
:100604004FF01003C5E900262B849CE80F000BAEC5
:1006140086E80F00164B0893164B0793164B069368
:10062400164BDFF86490CDE90483F0224FF4A073F5
:10063400CDE90958CDE90244CDE9002307F1600171
:10064400D9F80000DFF8448000F066FAC9F8000029
:1006540005461DE0003C024000ED00E000040240BD
:100664000003FA0500E100E00030014038190008F9
:10067400AD140008A51400088114000855140008DE
:100684000038024000000240D000002051A7FF00C3
:1006940000F0BBFBDFF82491E988A14272DC454CF1
:1006A400002223461146284600F0C8F8EE88A268C6
:1006B400A88861682346B21A3F4C411A284600F0C4
:1006C400BDF8642223461146284600F0B7F8636853
:1006D4007B61A3683B61D7E9042353435B00073381
:1006E40023F00703ADEB030DB7F810A0B7F814908F
:1006F40010AAADEB030DCDE900A2FA6010AB6422A1
:10070400BB6011464B46284600F0D0FC0126052468
:10071400B346A046BB681FFA88F1A2B2CDE900A394
:1007240028464B46C7E9002100F0C0FC0123029390
:10073400FB68D7E90021CDE900A328464B4600F029
:1007440069FC322001F0A3F801230293BB68D7E9C6
:100754000021CDE900A328464B4600F05BFC18EBD2
:100764000B08344404D0AB887A699B1A434501D101
:10077400CBF1000B24B1EB883A699B1AA342C9D18F
:100784007642C7E7AB88013B9BB2C4EB04224846E0
:10079400B2FBF1F24146D2B27B6100F02BF8A6B273
:1007A400CDE900607B6932460021284600F05CFDFB
:1007B400013471E7C4710008B471000859E2FF0004
:1007C400FEE7FEE7FEE7FEE7FEE770477047704787
:1007D400704700000148032100F016B9006402408C
:1007E400034AD2F8883043F47003C2F88830704763
:1007F40000ED00E070B5C3B2C0F30746C0F30724B0
:10080400C1F30740301A6FF0FE05504390FBF5F03A
:100814000644C1F30720201A5043C9B290FBF5F0F7
:100824000444591AE4B2F6B24A43240292FBF5F2A4
:10083400981844EA0644C0B2204370BD2DE9F04F35
:100844002DED028B89B0CDE902121D4653B3002968
:1008540028DB002A26DB8188029B994222DDC2889C
:10086400039B9A421EDD6B68029C2344994219DB68
:10087400AB6803990B449A4214DB95F80C90B9F1D8
:10088400000F14D0B9F1030F04D0B9F1040F18BF4D
:100894004FF002094FF00008444647464646AB680D
:1008A400434566DC09B0BDEC028BBDE8F08F4FF028
:1008B4000109EFE72A68297B08FB03A309FB03F37B
:1008C40002EB030C49BBD45CE70004F0E00607F03C
:1008D400E007A401E4B2029B03EB0A010DF11E033D
:1008E4000193012389B218EE102A0093CDE9040183
:1008F40000F0DCFB059904983B0243EA06432343DA
:100904005A4609B200F082FD04980AF1010A6B68A4
:100914005345CFDC08F10108C1E7012908D1D45AB5
:10092400260AE70806F0F80607F0FC07E400D1E71A
:1009340002290BD1D35A154A1342E6D01E0903F0FB
:10094400F00706F0F0061B01DCB2C4E7032905D169
:10095400D65C9CF801709CF80240BCE70429BAD12B
:10096400D35813F07F4FD0D0C3F30746C3F3072700
:10097400EAE7039B03EB080B1FFA8BF308EE103A2C
:100984004FF0000A0FFA8BFBC1E700BF00F0FFFF36
:10099400DFF834D00D480E490E4A002302E0D45843
:1009A400C4500433C4188C42F9D30B4A0B4C0023B3
:1009B40001E013600432A242FBD3FFF711FF00F001
:1009C40081FFFFF78FFC704700000120000000202A
:1009D400B4000020E4710008B4000020D40000201A
:1009E400FEE730B5838F446A856B02B91B04AB61A3
:1009F400E160A3689A0703D5A3681B0602D430BD3F
:100A040000BFF6E700BFF7E737B50C4632490246A8
:100A1400086849686B4603C304F108036B44032C5C
:100A240013F8080C8CBF02F10C0102F108013F23FA
:100A340083400B60294B1B68002B30D0996A8A4293
:100A440009D1D96A8C4206D1196C39B14969B3F814
:100A54004400084202D0D3F84C36EDE72049085D43
:100A6400115821F00101115015182C6814F00104DB
:100A740017D1D3F83C16B1B1B1F5803F23BFA1F52E
:100A84007F414FF6FF746C60696026BFFF39C3F87D
:100A94003C16C3F83C46135843F00103135003B00B
:100AA40030BD00BFE1E7596A4A6822F002024A6099
:100AB4005A6A916809060CD493F8411621B9196C45
:100AC40011B1B3F844308B61136823F04003136011
:100AD400E5E700BFECE700BF48190008D00000209C
:100AE400D4710008026B10B504466AB1838E1B04EE
:100AF4009361192000F0CBFE236BA28E9A61BDE8AE
:100B04001040192000F0C3BE10BD20B14FF4CA62DA
:100B1400002100F0FBBE70472DE9F74F8246BDF877
:100B24003090BDF83470BDF93860BDF93C809DF853
:100B340040B001921D460C46002900F0C4804FF4D9
:100B4400CA620021204600F0E1FE9DF85830DDF82D
:100B540054E084F84830BEE80F0004F1240CACE8FB
:100B64000F00BEE80F00ACE80F00DEF80030CCF850
:100B74000030A36A002B2AD0E26A58498A5C99584B
:100B840021F00101995098180168C90769D494F8B3
:100B94004810012967D1995821F4F0419950995886
:100BA4009950995821F4802121F00E0199504169FE
:100BB40021F080014161995841F0100199509958F0
:100BC40021F400719950995841F480619950019928
:100BD400019BA94238BF29469D4228BF1D461BF0F0
:100BE400FD0354D1A580E180A4F800906780BBF197
:100BF400000F42D16681A4F80C802288A3889A420F
:100C04005DD36288E3889A4259D3119B002B56D056
:100C1400129B002B53D0119B6361129BA361139B06
:100C2400E361149B236217AB0FCB04F14C0584F8EA
:100C340008B085E80F00002384F84036C4F84C3629
:100C4400C4F8483604F16003E365BAF1000F3AD002
:100C5400DAF84C26002A3AD1C4F848A6CAF84C4619
:100C640031E000BF90E702299BD1995821F4F0416B
:100C74009950995841F4205192E7A9EB0609A7EB42
:100C84000807A9EB05057F1A6581A781B5E7012B44
:100C940015D1BBF1010F27800CBFA9EB0606A7EB0A
:100CA4000807E58014BF7F1A751BA180A4F8029081
:100CB40007BFA4F80A80A5816781A6819DE7204625
:100CC400FFF723FF0024204603B0BDE8F08F94F81B
:100CD4004036013384F840369246B9E7D4710008AF
:100CE400436A1868C0F3801070472DE9F843466AD8
:100CF40005460C462846FFF7F3FF012825D095F852
:100D040041362BB92A6C1AB1B5F844301B049361EF
:100D1400336823F42C433360336843F04003336077
:100D24002278012A19D0022A26D05ABB6178284693
:100D3400FFF757FE04F1030914F8028F474614F82D
:100D4400011F27B909EB0804EAE700BFD2E7012233
:100D54002846FFF746FE013FF1E704F1020914F8C3
:100D6400018F474614F8011F002FEBD001222846BB
:100D7400FFF737FE013FF5E76078A71C00F087FD19
:100D84003C46CDE795F8413623B92B6C13B1B5F841
:100D940044209A61336823F040033360BDE8F8834C
:100DA4006429C36C0A4628BF642280F85A201BB306
:100DB400D96A4A436421B2FBF1F2016DB1F5807F37
:100DC40018D00ED8012911D0102911D01A68D207D1
:100DD40018D41A6A114319621A6842F001021A609F
:100DE4007047B1F5805FF1D11A64EFE75A63EDE71C
:100DF4009A63EBE7DA63E9E7426D1AB1B0F8583069
:100E040009B1936170471B04FBE710B50446FFF773
:100E140069FE6369207A984701462046FFF765FF1B
:100E240094F85A102046BDE81040FFF7B9BFF8B552
:100E34000446BDF818C0A5894089A669C718AC4402
:100E440008441544A9B21FFA8CF3BAB280B2B04771
:100E540001462046BDE8F840FFF747BF38B5456A6C
:100E640004462046FFF73CFF012831D094F8413670
:100E74002BB9206C18B1B4F844301B04836194F886
:100E8400423613B9A36BA08F98612B6823F42C43CB
:100E94002B6094F84800022802BF2B6843F40063D7
:100EA4002B602B68022843F040032B601CD18AB9C5
:100EB400AB681B0624D494F8413623B9236C13B1D0
:100EC400B4F844209A612B6823F040032B6038BDAA
:100ED40000BFC6E731F8023BEB60AB689B0701D566
:100EE400013AE4E700BFF8E701EB42029142DFD0A8
:100EF40011F8013BEB60AB689807F7D400BFFAE741
:100F040000BFD5E7836A2DE9F341044688461546B8
:100F1400002B75D090F84830012B08BF5500426A69
:100F24002046FFF7DDFE012868D094F841362BB93E
:100F3400216C19B1B4F844301B048B6194F8423627
:100F440013B9A36BA18F99611368C4F83C5623F4B9
:100F54002C43136094F848302C49022B02BF1368C9
:100F640043F400631360136843F040031360D4E94F
:100F74000A37CE5D264908684968EE46AEE80300A4
:100F840007F10801032F0DEB010788BF03F10C00E3
:100F940017F8087C98BF03F108003F21B9400160AD
:100FA400516803EB060C41F0020151600C32CCF89D
:100FB4000820CCF80C809A5922F400729A519A595C
:100FC400B5F5803F42F480629A512BBF4FF6FF7211
:100FD400CCF80450CCF80420002238BFC4F83C26D6
:100FE4009A5924BFA5F57F45FF3D42F0010228BF71
:100FF400C4F83C569A5102B0BDE8F08100BF8FE7B7
:1010040002B0BDE8F041FFF729BF00BFD47100086A
:10101400481900082DE9F347B0F804C0BDF828804A
:10102400DDF82C909DF830A08C45074614461E46EA
:1010340025D9C388934222D901EB060EE6451EDC6E
:1010440002EB080C9C451ADC08F1FF35731E2C4496
:101054000B44A4B200949BB2FFF7E9FE08FB06F22E
:1010640049463846BAF1000F04D002B0BDE8F04753
:10107400FFF748BF02B0BDE8F047FFF7EFBE02B08C
:10108400BDE8F087D20002F4FC6242EAD303064AC8
:1010940002EA012190F84820012A43EA010301D120
:1010A4005BBA9BB21846704700F8FFFF2DE9F04F7A
:1010B4001E46838889B08B42BDF84880044640F2BE
:1010C4009E80C588954240F29A80701E084480B282
:1010D400834240F2948008F1FF3313449BB29D4253
:1010E40040F28D80A789B4F80AC03A441F44584B93
:1010F40061440DF1080E84448DB292B21FFA8CFC47
:10110400BFB203F1100BF14618685968F246AAE819
:10111400030008335B45D646F6D118689B88AAF8C5
:1011240004302B0ACAF800008DF80F304FEA1C2354
:101134008DF81130130A8DF816303B0A8DF81050D3
:101144008DF812C08DF817208DF818308DF81970AD
:101154002046FFF7C5FD40BB656A226C012384F875
:1011640041362F682B6823F42C4323F038032B607B
:101174002B6843F008032B601AB1B4F844301B0405
:10118400936149462046FFF7B0FDA36BA28F9A6195
:101194002B6843F040032B60002308FB06F6EB604A
:1011A400AB68D80703D400BFFAE700BFD0E7EB6809
:1011B4000023EB60AB68D90701D400BFFAE7EB6802
:1011C4004FF00008F6B9236C13B1B4F844209A61C7
:1011D400002384F84136AB681B0637D42B6823F010
:1011E40040032B601B4B2F60D3F81E00009093F834
:1011F40022308DF8043069462046FFF776FD09B0A9
:10120400BDE8F08FC5F80C80AB68DA0718D5E9683B
:10121400C5F80C80C9B2AB68DB0713D5EA68C5F81A
:101224000C80D2B2AB68D8070ED5EB682046DBB28F
:10123400FFF728FF139B23F8020B013E1393C1E72A
:1012440000BFE1E700BFE6E700BFEBE700BFC2E78E
:101254005019000848190008CBB2C1F30722C1F3A2
:101264000741FFF70FBF0000F0B585B0994204466F
:10127400BDF82800A68882BF0D4619462B46824237
:1012840082BF1546024628468E4240F28A80E5888F
:10129400954240F286809E429CBF06F1FF339BB28A
:1012A40085429CBF05F1FF3080B2851A009020462C
:1012B4005E1AFFF7BCFD94F84136013506FB05556F
:1012C4002BB9226C1AB1B4F844301B04936194F81E
:1012D400423613B9A36BA28F9A610B992046FFF78C
:1012E400BBFF636AA4F844061A6822F42C421A600D
:1012F40094F84810022902BF1A6842F400621A6086
:101304001A6842F040021A60A26A002A4BD0E76AC7
:1013140001293C49CE5D3C49086849680DF1080E35
:10132400AEE8030007F1100108BF6D00032F0DEBB9
:10133400010788BF02F10C0017F8087C98BF02F17E
:1013440008003F21B9400160596802EB060C41F0E6
:10135400020159600C33CCF8083004F24463CCF831
:101364000C30935923F4007393519359B5F5803F8E
:1013740023F4806393512BBF4FF6FF73CCF80450D2
:10138400CCF80430002338BFC4F83C36935924BF4A
:10139400A5F57F45FF3D43F0010328BFC4F83C5643
:1013A400935105B0F0BD022918D17DB99A6812068F
:1013B40026D494F8412622B9226C12B1B4F8441010
:1013C40091611A6822F040021A60EAE7D8609A68CC
:1013D400970701D5013DE8E700BFF8E7C2B2000A6C
:1013E400002DE3D0DA6099688E0705D5D860996836
:1013F400890703D5013DF3E700BFF4E700BFF6E733
:1014040000BFD3E7D47100084819000830B51D4661
:1014140083888B4285B0044618DDC388934215DD6A
:10142400002913DB002A11DB92B28BB20092194619
:10143400FFF7FDFC29462046FFF70EFF0122ADF819
:101444000E000DF10E012046FFF708FD05B030BD7A
:1014540058B102280BD001280BD0032814BF002355
:10146400F823054880F8413070474823F9E79C2366
:10147400F7E72C23F5E700BF0400002030B504464D
:101484000648250A04718271140A0A0A82721A0A29
:10149400C5704471C1720273437330BD950000205E
:1014A40000487047A700002000487047AD000020A6
:1014B4002DE9F04702460D6895FAA5F44FF0010EA8
:1014C400B4FA84F403264FF00F0C35FA04F001D17A
:1014D400BDE8F0870EFA04F32B406DD04868471E30
:1014E400012F1ED8D2F8088093FAA3F7B7FA87F72A
:1014F40093FAA3F97F0006FA07F728EA0708B9FA6E
:1015040089F98F684FEA490907FA09F748EA070792
:101514009760576827EA0308CF685F4348EA0707DC
:101524005760D2F80C8093FAA3F7B7FA87F793FAC7
:10153400A3F97F0006FA07F728EA0708B9FA89F938
:101544000F694FEA490907FA09F748EA0707022829
:10155400D7601DD193FAA3F7B7FA87F7072FD1F80D
:1015640014902BDCD2F820A093FAA3F8B8FA88F8E8
:1015740093FAA3F7B7FA87F74FEA88080CFA08F842
:10158400BF002AEA080809FA07F748EA07071762BA
:10159400D2F8008093FAA3F7B7FA87F793FAA3F384
:1015A400B3FA83F37F0006FA07F75B0028EA07071C
:1015B40000FA03F33B431360013486E7D2F824A016
:1015C4001F0A97FAA7F8B8FA88F897FAA7F7B7FAAC
:1015D40087F74FEA88080CFA08F8BF002AEA0808D7
:1015E40009FA07F748EA07075762D1E70246006895
:1015F40010F04000F0B527D1D1E900373B438F68A4
:101604004D6916680C6A3B43CF683B430F693B4303
:101614008F692B433B43CF6926F47F463B432343E7
:1016240026F0BF0633431360536823F0040343EAF0
:101634001545B4F5005F556001D18B8C1361D369F6
:1016440023F40063D361F0BD0120F8E7234A036863
:1016540090420ED0B0F1804F0BD0A2F57C42904264
:1016640007D002F58062904203D002F58062904276
:1016740015D14A6823F070031343184A904219D0D5
:10168400B0F1804F16D0A2F57C42904212D002F500
:10169400806290420ED002F5806290420AD0104AD5
:1016A400904207D002F58062904203D002F5806236
:1016B400904203D1CA6823F44073134303608B68D8
:1016C400C3620B888362054B984204BF0B690363B2
:1016D400436943F001034361002070470000014067
:1016E40000400140B1F5807F30B500F0908005D80E
:1016F40001292AD0102958D0012030BDB1F5805FCE
:10170400FAD1036A156823F480530362036A4468B8
:10171400C16921F4E64141EA0521156923F4005326
:1017240043EA0533556823F4805343EA0533504DA7
:10173400A84208BF9569D26804BF24F4804444EAEF
:1017440085144460C16102642CE0036A156823F0C7
:1017540001030362036A4168846924F073042C431F
:10176400156923F002032B43556823F001032B432F
:101774003F4DA84212D1556923F0080343EA85037B
:10178400956823F0040343EA8503956921F4807185
:101794002943D56921F4007141EA4501D2684160C9
:1017A4008461426303620020A7E7036A156823F09B
:1017B40010030362036A4168846924F4E64444EA3A
:1017C4000524156923F0200343EA0513556823F023
:1017D400100343EA0513264DA84213D1556923F09B
:1017E400800343EA8513956823F0400343EA851395
:1017F400956921F4806141EA8501D56921F400618C
:1018040041EAC501D268416084618263CAE7036A20
:10181400156823F480730362036A4168C46924F081
:1018240073042C43156923F4007343EA05235568B4
:1018340023F4807343EA05230D4DA84213D155695F
:1018440023F4006343EA8523956823F4806343EA21
:101854008523956921F4805141EA0511D56921F464
:10186400005141EA4511D2684160C461C26399E7FD
:10187400000001404FF47A73B0FBF3F04FF0E02323
:101884000022013858619A6105221A6170474FF0AD
:10189400E02382B01B690193411C019B18BF0130F6
:1018A4004FF0E02308B902B070471A69D20348BF69
:1018B40000F1FF30F6E70000014B1860704700BFED
:1018C4000000002070B50D4D0D4C641BA4100026C3
:1018D400A64209D10B4D0C4C00F020F8641BA41057
:1018E4000026A64205D170BD55F8043B9847013641
:1018F400EEE755F8043B98470136F2E7DC7100083F
:10190400DC710008DC710008E07100080244034641
:10191400934200D1704703F8011BF9E7F8B500BF03
:10192400F8BC08BC9E467047F8B500BFF8BC08BCBC
:041934009E46704714
:10193800000400400100000000000000000050000A
:101948000006101600061016003A0166002A040068
:10195800000000002B0400000000002E0003003AE5
:101968000155030055F566F666F666F666F666F600
:1019780055F655F655F544F444F455F555F555F630
:1019880055F655F555F555F555F555F544F455F510
:1019980055F555F555F555F655F555F555F555F5EE
:1019A80044F545F555F555F555F555F555F555F500
:1019B80055F544F455F577F777F777F877F877F82A
:1019C80077F777F766F645F544F466F777F778F82A
:1019D80088F888F888F877F877F766F744F455F5C3
:1019E80066F666F777F777F777F777F777F766F7B3
:1019F80045F544F466F777F777F877F877F877F7E7
:101A080066F644F455F577F777F877F888F888F8A4
:101A180078F877F767F755F544F477F788F888F991
:101A280099F999F988F988F988F867F744F455F528
:101A380077F777F888F888F888F888F877F877F7E4
:101A480055F544F466F777F778F888F888F877F862
:101A580066F744F445F566F677F777F777F877F899
:101A680077F877F767F755F544F477F788F888F942
:101A780088F988F988F988F988F867F744F455F5FA
:101A880077F777F777F888F888F888F877F877F7A6
:101A980055F544F466F777F778F888F888F877F812
:101AA80066F744F444F455F666F666F766F766F7A3
:101AB80066F766F766F645F544F466F667F777F86D
:101AC80077F877F877F877F877F766F644F444F418
:101AD80066F666F666F777F777F777F766F766F6E6
:101AE80045F544F466F677F777F777F877F877F7F8
:101AF80066F644F444F455F555F666F666F666F669
:101B080056F655F655F544F444F455F556F666F68A
:101B180066F666F666F666F655F655F534F444F458
:101B280045F555F555F555F655F655F655F545F57A
:101B380044F444F455F555F556F666F666F656F649
:101B480055F544F444F444F444F444F444F444F4BB
:101B580044F444F444F444F444F444F444F444F4BD
:101B680044F444F444F444F444F444F444F444F4AD
:101B780044F434F434F444F444F444F444F444F4BD
:101B880044F444F434F444F444F444F444F444F49D
:101B980044F444F455F555F655F655F655F544F420
:101BA80045F555F655F555F666F666F666F666F6A3
:101BB80066F666F655F544F455F566F666F666F685
:101BC80066F766F766F666F666F655F544F455F573
:101BD80055F555F655F666F666F666F666F666F651
:101BE80055F544F445F566F777F777F766F744F463
:101BF80044F566F777F777F888F888F888F888F86A
:101C080088F877F756F644F455F566F777F777F8D6
:101C180088F888F877F877F766F766F644F455F5A4
:101C280066F666F777F777F877F888F888F877F838
:101C380066F744F445F566F666F767F766F744F520
:101C480044F466F777F888F988F988F988F988F804
:101C580077F877F766F644F455F566F777F888F875
:101C680088F888F878F877F766F755F644F455F564
:101C780066F777F777F877F888F888F888F877F7C5
:101C880066F644F445F566F666F766F766F645F5D2
:101C980044F466F777F888F888F988F888F988F8B6
:101CA80088F877F866F644F455F566F777F777F825
:101CB80077F877F877F766F766F655F534F455F55B
:101CC80066F777F777F777F777F777F777F777F7AD
:101CD80066F644F444F556F666F666F655F644F4A8
:101CE80034F455F566F777F777F777F877F777F7F6
:101CF80077F766F756F644F444F456F666F677F73F
:101D080067F766F766F666F655F644F533F344F476
:101D180055F666F666F766F766F766F766F766F6E7
:101D280055F534F444F444F444F444F544F434F4F8
:101D380034F333F444F444F455F555F555F555F5B5
:101D480055F545F544F444F434F444F444F444F4C7
:101D580044F444F444F444F434F433F334F434F4FD
:101D680044F444F444F444F544F444F444F444F4AA
:101D780034F433F344F444F444F444F444F444F4BD
:101D880044F444F444F434F444F444F444F444F49B
:101D980044F444F444F455F544F444F444F444F469
:101DA80044F444F444F444F444F444F445F544F469
:101DB80044F444F444F444F444F444F444F444F45B
:101DC80044F444F455F566F666F666F666F666F685
:101DD80066F666F666F655F544F455F666F666F761
:101DE80077F777F777F766F766F766F656F644F506
:101DF80045F566F666F777F777F777F777F767F7D2
:101E080066F766F755F644F455F666F666F666F72D
:101E180066F644F555F566F777F777F877F877F8C3
:101E280077F877F777F755F544F466F667F777F7B5
:101E380077F877F877F877F877F877F766F755F55A
:101E480044F466F677F777F888F888F888F888F819
:101E580077F877F866F744F456F667F777F777F781
:101E680077F755F544F567F777F888F888F877F83D
:101E780077F877F877F755F544F466F667F777F764
:101E880077F877F877F877F877F877F766F755F50A
:101E980044F466F677F788F888F888F888F888F8B8
:101EA80088F877F877F744F456F677F777F777F7FF
:101EB80077F755F544F466F677F777F777F777F716
:101EC80077F766F766F655F544F455F666F667F75C
:101ED80077F777F777F777F777F766F766F655F5D1
:101EE80044F466F666F777F777F877F877F877F8CF
:101EF80077F877F766F644F455F566F767F777F7F6
:101F080066F744F544F455F666F666F666F666F640
:101F180066F656F655F644F444F455F555F666F665
:101F280066F666F666F666F666F656F655F644F50D
:101F380044F455F555F666F666F766F766F766F7FC
:101F480066F766F655F544F445F555F666F666F611
:101F580055F644F433F344F455F555F545F544F591
:101F680044F444F444F444F444F444F445F555F595
:101F780055F555F555F555F545F545F544F444F44D
:101F880044F444F444F444F545F545F544F555F571
:101F980055F545F544F444F444F444F444F545F562
:101FA80044F433F344F444F444F444F444F444F47B
:101FB80044F445F544F444F445F544F444F444F455
:101FC80044F444F444F444F444F444F445F445F546
:101FD80044F444F444F444F444F434F434F444F459
:101FE80034F444F444F445F544F444F444F444F437
:101FF80044F444F455F667F777F777F767F767F728
:1020080066F756F644F455F666F666F766F666F62B
:1020180066F666F666F666F666F655F544F455F520
:1020280055F666F666F766F766F666F666F666F6D7
:1020380055F644F445F555F555F566F666F666F633
:1020480056F644F555F566F777F777F877F877F7A2
:1020580066F755F644F466F677F777F777F877F882
:1020680077F877F777F777F766F756F644F455F584
:1020780066F666F777F777F777F877F877F877F708
:1020880077F755F544F466F666F677F777F767F766
:1020980066F755F545F566F666F777F777F777F754
:1020A80066F755F644F455F666F777F777F777F756
:1020B80077F777F767F766F766F655F534F455F569
:1020C80066F666F767F777F777F777F777F777F7CB
:1020D80077F755F544F466F666F777F777F767F715
:1020E80066F745F544F466F666F666F766F766F64B
:1020F80066F655F534F455F566F666F666F666F74F
:1021080066F766F766F766F666F645F533F355F54E
:1021180066F666F666F666F766F766F766F766F7D2
:1021280066F745F544F466F666F666F766F766F60A
:1021380066F644F444F455F556F666F666F655F632
:1021480055F544F534F444F455F555F555F555F57C
:1021580055F555F555F555F555F544F433F344F46F
:1021680045F555F555F555F655F655F655F655F622
:1021780055F534F434F455F555F555F555F655F54A
:1021880055F534F444F444F444F444F444F444F485
:1021980034F434F444F433F333F333F333F333F3F1
:1021A80033F333F333F334F434F434F444F433F3DF
:1021B80033F333F333F333F333F333F333F333F3E7
:1021C80033F333F344F433F333F334F434F434F4BF
:1021D80033F333F355F555F555F555F555F545F5FF
:1021E80045F455F555F555F555F555F555F545F5B8
:1021F80044F544F444F445F544F545F545F545F50D
:1022080045F544F544F444F444F444F444F445F501
:1022180044F555F555F555F545F555F545F545F5A7
:1022280044F444F455F566F766F766F766F755F52E
:1022380044F466F666F666F666F766F766F666F7D7
:1022480066F655F644F444F455F666F666F766F70E
:1022580066F766F766F766F766F656F644F455F5D8
:1022680066F666F666F677F777F777F777F777F72C
:1022780066F644F445F566F666F767F766F655F5CB
:1022880044F455F666F666F777F777F767F777F762
:1022980066F766F644F444F466F666F667F777F789
:1022A80077F777F777F767F766F766F644F445F553
:1022B80066F666F667F777F777F777F777F777F7DA
:1022C80066F644F444F566F666F766F766F645F58D
:1022D80044F455F566F666F767F777F766F766F735
:1022E80066F655F644F444F455F666F666F767F76D
:1022F80067F767F766F766F766F666F634F444F547
:1023080066F666F767F777F777F777F777F766F799
:1023180066F644F444F455F656F666F655F644F572
:1023280034F455F556F666F666F666F666F666F61B
:1023380056F655F544F444F455F555F556F666F653
:1023480066F666F666F666F666F655F534F444F40F
:1023580055F556F666F666F666F666F656F655F6D8
:1023680055F544F444F455F555F555F555F544F44B
:1023780034F444F455F545F544F444F545F555F57C
:1023880045F544F433F444F444F444F545F545F58F
:1023980045F555F555F555F545F544F433F333F35F
:1023A80044F444F444F444F444F444F434F433F486
:1023B80033F333F344F434F434F444F434F434F4B9
:1023C80044F444F444F444F444F444F444F444F445
:1023D80044F434F444F445F444F444F444F434F454
:1023E80034F434F434F444F444F444F445F444F454
:1023F80044F434F433F334F333F333F333F333F390
:1024080034F344F455F566F666F666F666F666F64F
:1024180066F656F655F655F545F555F666F666F739
:1024280066F766F666F666F666F655F645F555F508
:1024380066F666F766F766F777F767F766F766F79B
:1024480055F555F566F666F666F766F766F766F7C4
:1024580066F644F544F466F677F777F777F877F891
:1024680077F777F766F755F534F455F666F677F7A4
:1024780077F777F777F766F766F655F634F444F4A6
:1024880066F666F777F777F877F877F877F767F704
:1024980044F445F566F777F777F877F877F877F73C
:1024A80066F744F444F455F666F677F777F877F765
:1024B80077F777F777F755F534F455F666F667F753
:1024C80077F777F777F766F666F655F534F445F556
:1024D80066F666F677F777F877F877F777F766F6B8
:1024E80044F444F466F666F777F777F877F777F702
:1024F80066F644F444F455F556F666F666F766F75C
:1025080066F766F766F755F534F455F666F666F637
:1025180066F766F766F766F656F655F533F344F44C
:1025280066F666F777F777F766F766F766F766F69B
:1025380044F444F466F666F666F767F766F766F6F7
:1025480066F644F434F444F444F545F555F555F588
:1025580055F545F544F544F433F344F455F555F58C
:1025680055F555F555F555F555F544F533F334F46A
:1025780045F555F666F666F666F655F655F655F5DA
:1025880034F444F455F555F655F655F655F655F523
:1025980045F533F333F333F333F333F333F333F3EF
:1025A80033F333F333F344F444F433F333F333F3CF
:1025B80033F333F333F344F444F433F344F444F49B
:1025C80033F334F444F444F444F434F434F333F398
:1025D80044F444F444F444F434F434F434F434F473
:1025E80033F334F400000000000000000000000095
:1025F80000000000000000000000000000000000D3
:1026080000000000000000000000000000000000C2
:1026180000000000000000000000000000000000B2
:1026280000000000000000000000000000000000A2
:102638000000000000000000000000000000000092
:102648000000000000000000000000000000000082
:102658000000000000000000000000000000000072
:102668000000000000000000000000000000000062
:102678000000000000000000000000000000000052
:102688000000000000000000000000000000000042
:102698000000000000000000000000000000000032
:1026A8000000000000000000000000000000000022
:1026B8000000000000000000000000000000000012
:1026C8000000000000000000000000000000000002
:1026D80000000000000000000000000000000000F2
:1026E800000000000000003011720000000000002F
:1026F80000000000000000000000440464053303EB
:102708006405320343044304000000004404220229
:1027180000000000000000000000000000000000B1
:1027280000000000000000000000000000000000A1
:102738000000000000000000000000000000000091
:102748000000000000000000000000000000000081
:102758000000000000000000000000000000000071
:102768000000000000000000000000000000000061
:102778000000000000000000000000000000000051
:102788000000000000000000000000000000000041
:102798000000000000000000000000000000000031
:1027A8000000000000101181229332831171000093
:1027B800000000000000000000000000B64AA3C8A6
:1027C800A49881E69377937893979709A90AB64ACC
:1027D800A5492102860742031001000000000000FD
:1027E80000000000000000000000000000000000E1
:1027F80000000000000000000000000000000000D1
:1028080000000000000000000000000000000000C0
:1028180000000000000000000000000000000000B0
:1028280000000000000000000000000000000000A0
:102838000000000000000000000000000000000090
:102848000000000000000000000000000000000080
:102858000000000000000000000000000000000070
:1028680000000000106122C3338322921152328388
:1028780011720000000000000000540563269378E0
:1028880071F550F360F470F570F571F5B55AB489C7
:10289800A3E9B3D99458D69BC57BB70A75076506D3
:1028A800100100000000000000000000000000000F
:1028B8000000000000000000000000000000000010
:1028C80000000000000000000000000011010000EE
:1028D80000000000000000000000000000000000F0
:1028E80000000000000000000000000000000000E0
:1028F80000000000000000000000000000000000D0
:1029080000000000000000000000000000000000BF
:1029180000000000000000000000000000000000AF
:10292800000000402172329322A32152227222B267
:102938002142227311820000000000009608C59B06
:1029480091F771F550F460F460F570F581F681E760
:10295800A3E8B4F9A3F9B3F9B4FAC4FAC4AAC81C31
:10296800C93B6406000000000000000000000000F1
:10297800000000000000000000000000000000004F
:10298800000000000000000000000000320385AADB
:102998004265114200000000000000000000000035
:1029A800000000000000000000000000000000001F
:1029B800000000000000000000000000000000000F
:1029C80000000000000000000000000000000000FF
:1029D80000000000000000000000000000000000EF
:1029E8000000115131F421A22242226222A2116276
:1029F80022632292115232731181100174068517D5
:102A08009609C58BA3F981F660F560F570F592F724
:102A1800A3F892E8B4F9A3F9B3F9C4FAC4FAB4E98B
:102A2800A3B9B3A9210200000000000000000000C3
:102A3800000000000000000000000000000000008E
:102A48000000000000000000000000002203A7BBF7
:102A580095FB64F732F400600000000000000000FD
:102A6800000000000000000000000000000000005E
:102A7800000000000000000000000000000000004E
:102A8800000000000000000000000000000000003E
:102A9800000000000000000000000000000121020A
:102AA80022024404435554F631F411A222525485AB
:102AB80032B3317353A52292115232736396B4CA5A
:102AC800A3E881C682E671F660F550F450F471F51A
:102AD800A3F8A3F892F8B4F9B4F9B3F9C5FAB4F9BC
:102AE800A3F9B4F9C49A2001000000000000000016
:102AF80000000000000000000000000000000000CE
:102B08000000000000000000000000003203A7BB26
:102B180095FB54F632F421C2218200100000000017
:102B2800000000000000000000000000000000009D
:102B3800000000000000000000000000000000008D
:102B4800000000000000000000000000000000007D
:102B58003303750600000000000000000000A519FE
:102B6800D68CD78CD78C84D985FA43F511F322A358
:102B780072C672F652F440E342941192224253858F
:102B880052F581F681F660F550F450F350F371F583
:102B980092F7A3F9A3F8A3F8B4F9A3F9B4F9C5FB1C
:102BA800B4FAB3F9C4FAC5DA8408000000000000DA
:102BB800000000000000000000000000000000000D
:102BC8000000000000000000000000003203A7BC65
:102BD80096FB54F621F311C2225232831181000070
:102BE80000000000000000000000000000000000DD
:102BF80000000000000000000000000000000000CD
:102C08000000000000000000000000000000540662
:102C1800B73BB55AD68C52150000000000000000E2
:102C28009428B3F9B4FAB3F9B5EAA6EB85F943F5F4
:102C380011F341F451F462F531F351D4637622A2D1
:102C4800538573E662F582F781F661F560F471F6F3
:102C5800A3F8B4FAB4FAB4F9A3F8A3F8A3F8B4FA49
:102C6800D6FBC5FBC4FAC4FAD5DB86180000000001
:102C7800000000000000000000000000000000004C
:102C8800000000000000000000000000320396BBB6
:102C980096FB54F621F321C21151225232A322C3CA
:102CA80000200000000000000000000000000000FC
:102CB800000000000000000000000000000000000C
:102CC80000000000000000000000000000000000FC
:102CD8004204B47A81F692F7B4B98437A5297416F8
:102CE8002202B55AB4F992F8A3F8A3F8C5AAA6DB4C
:102CF80085FA43F521F431F362F551F441F362E6C4
:102D080063A542E472F662F552F571F661F571F663
:102D1800A3F8B4F9B4FAB4FAA3F893F8A3F8A3F9AA
:102D2800B4F9C5FBC5FBC5FBC5FBB57A10010000AE
:102D3800000000000000000000000000000000008B
:102D48000000000000000000000000003203A7BBE4
:102D580096FB64F732F411C21152226322A3117256
:102D6800327321A2000000000000000000000000F3
:102D7800000000000000000000000000000000004B
:102D8800000000000000000000000000000000003B
:102D980010016505A42992E760F4B3F9C4FAB3E910
:102DA80092E7A479C59AA3F892F7A2F8A3F8C4DA2F
:102DB800C5CAA5FB85FA43F521F452F572F541F42D
:102DC80041F463B6539542F461F551F441F461F46A
:102DD80092F7B4F9B4F9A4F993F892F8A3F9B4F90D
:102DE800B4F9C4FAC5FBC5FAB4FAC4FAB63A000095
:102DF80000000000000000000000000000000000CB
:102E08000000000000000000000000003203A7BC22
:102E180096FB64F732F421C22262225222A3218255
:102E2800225222922293005100000000000000006C
:102E3800000000000000000000000000000000008A
:102E4800000000000000000000000000000000007A
:102E58005305C91BC57AA3D9A3E881F781F6B3F94D
:102E6800B3F992F870F570F592F792F792F8A3F823
:102E7800A3F9A3F8A3F995FB85FA53F632F441F4C4
:102E880051F462F552E573E662F541F361F551F4E8
:102E980041F371F5A3F9A4F982F692F7B3F9B3F9FE
:102EA800B4F9B4F9B4F9B4F9A3F8A2B89628860825
:102EB80010010000000000000000000000000000F9
:102EC8000000000000000000000000003203A7BB63
:102ED80095FA64F732F421C31152225232B31172B7
:102EE800225332B31161226321A2000000000000C6
:102EF80000000000000000000000000000000000CA
:102F080000000000000000000000000000000000B9
:102F18001101A60AC4AAA2F8B4F9A3F892F892F784
:102F280092F792F792F8A3F881F682F792F792F760
:102F3800A2F8A3F8A2F892F793F895FB85FA43F55F
:102F480031F441F461F572F652F562F562F541F437
:102F580041F341F341F493F8A3F881F6A2F8A3F9F9
:102F6800A3F9A3F8A3F893F892F792E7A498530467
:102F78000000000000000000000000000000000049
:102F88000000000000000000000000003203A7BCA1
:102F980095FB64F732F521C21151225222A3217206
:102FA800226322A311523263219200100000000014
:102FB8000000000000000000000000000000000009
:102FC80000000000000000000000000000000000F9
:102FD80000006406E87CA3F992F7A3F8B4F9A3F912
:102FE80092F792F782F781F692F792F892F792F7B2
:102FF80092F8A2F8A2F892F792F781F682F695FA7B
:1030080085FA53F631F431F362F562F542F461F56D
:1030180062F541F351F452F563F682F682F792F8BD
:10302800A2F8A3F8B3F9B3E9B4A9A4785205420405
:103038000000000000000000000000000000000088
:103048000000000000000000000000003203A7BBE1
:1030580095FB54F732F521C3216222523293118233
:10306800226232A321622263229200200000000023
:103078000000000000000000000000000000000048
:103088000000000000000000000000000000000038
:10309800000000006405E6ECC5FBB3F9C5FAB4F915
:1030A80092F892F782F671F671F671F582F792F856
:1030B80092F7A2F8A2F892F892F782F771F561F503
:1030C80072F695FA86FA43F521F441F461F551F563
:1030D80042F461F562F542F462F552F541F481F685
:1030E80092F792F792D892A79358C80BA80A8438F7
:1030F8005134110100000000000000000000000031
:103108000000000000000000000000003203A7BB20
:1031180095FB64F732F421C21162225222A3118274
:10312800225232B311622253229200100000000092
:103138000000000000000000000000000000000087
:103148000000000000000000000000000000000077
:103158000000000022027406C5AAC5FAD6FCD6FCF7
:10316800A3F982F782F782F671F671F571F592F795
:1031780092F892F7A2F892F792F782F771F661F552
:1031880061F460F461F485FA85FA53F621F431F3B9
:1031980061F461F542F462F562F541F451F462F5C7
:1031A80052F5A2F89388837770F560E471D5829719
:1031B80070F581E6A5798528000000000000000070
:1031C800000000000000000000000000320397BB70
:1031D80096FB54F632F421D31151225222B32182A4
:1031E800226322B3115222632192001000000000D2
:1031F80000000000000000000000000000000000C7
:1032080000000000000000000000000000000000B6
:10321800000000000000B72AA3B8B4C9C5FAD5FB5E
:10322800D6FCA4F982F782F782F681F671F571F679
:1032380092F792F892F792F792F781F671F561F5A5
:1032480060F460F450F450F361F595FA85FA43F5AB
:1032580031F441F461F462F552F551F552F552F446
:1032680062F552F562E6937881F660F550F361D520
:1032780070F571F671F692F7C4CA8508000000006F
:103288000000000000000000000000003203A7BB9F
:1032980096FB64F732F511C22252226322A31172FF
:1032A800226322A3216222622192002000000000F2
:1032B8000000000000000000000000000000000006
:1032C80000000000000000000000000000000000F6
:1032D8000000000000001101B54AB3F9A3F8B4FAE0
:1032E800C5FAC5FBC5FA92F782F682F671F671F651
:1032F80081F7A2F892F892F792F782F671F571F5D4
:1033080060F440F250F350F360F481F682F695FAD7
:1033180085FA53F621F331F372F662F542F451F46B
:1033280051F442F451F462F541F471F660F450F44A
:1033380071F581F671F671F581F6A3F8D67B430431
:103348000000000000000000000000003203A7BBDE
:1033580096FB54F721F421C32262225222A3218230
:10336800225222A321622263229200100000000050
:103378000000000000000000000000000000000045
:103388000000000000000000000000000000000035
:1033980000000000000000009719D5EBD6FCE7FDFF
:1033A800D6FBB5FAB4F9C5FAB4F992F782F771F613
:1033B80081F682F782F781F692F792F781F681F625
:1033C80070F540F230F250F350F361F481F671F584
:1033D80061F595FA85FA43F521F442F472F661F540
:1033E80031F352F541F342F472F672F641F450F4B7
:1033F80060F470F581F693F892F8B4F9B4FAB3D999
:10340800B90A000000000000000000003203A6BB5B
:1034180096FB64F732F421C21151225232B3117271
:10342800225332B31152226322920020000000007E
:103438000000000000000000000000000000000084
:103448000000000000000000000000000000000074
:1034580000000000000000000000A629C4FAD6FB06
:10346800D6FCB4F9C5FAC5FAA3F8A3F8A3F993F7FB
:1034780072F681F671F561F471F571F681F681F6EF
:1034880071F540F240F250F350F350F361F471F6E5
:1034980060F473F564F685F996FA43F532F452F45C
:1034A80051F564F521F262F552F441F362F552F4F4
:1034B80041F460F560F592F7B4F9B4FAC4FAA3F9E7
:1034C800A3D8C67B4204000000000000320397BB6B
:1034D80095FB54F732F521C22152226322A31172BF
:1034E800226222A3226222632192001000000000BF
:1034F80000000000000000000000000000000000C4
:1035080000000000000000000000000000000000B3
:103518000000000000000000000000008427D6EC36
:10352800D6FCB4FAA3F8C5FAC5FBA3F882F682F66E
:1035380082F772F671F560F460F460F460F471F685
:1035480071F530F230F150F340F350F360F471F557
:1035580071F650F374F786F896F996FB96FA43F5E8
:1035680021F331F321F254F543F551F442F442F4D6
:1035780051F452F451F470F592F8A3F8B4F9A3F8A1
:10358800A3F9C5FAA3992002000000003203A7BBE3
:1035980096FB54F621F411C22262225232A32182F0
:1035A800225222A31162226321920020000000000F
:1035B8000000000000000000000000000000000003
:1035C80000000000000000000000000000000000F3
:1035D8000000000000000000000000007406D6CBC8
:1035E800C5FBA3F9A3F8A3F8B4FAB4FAA3F882F6D2
:1035F80071F671F550F450F460F460F460F460F51D
:1036080071F550F330F240F240F240F260F471F597
:1036180071F571F540F274F6B9FCCAFDA8FB85FA9C
:1036280085FA43F521F353F565F753F542F472F63D
:1036380073F652F462F551F551F492F7A3F8B4F920
:10364800B4FAC5FBB4FA834700000000320397BB05
:1036580095FB64F732F421C22152224222B321821F
:10366800225332B31162225222920010000000004D
:103678000000000000000000000000000000000042
:103688000000000000000000000000000000000032
:103698000000000000000000000000000000860894
:1036A800E78CC4BAB3E9A3F8A3F8B4F9B4F993F86A
:1036B80071F671F560F450F340F360F460F460F46F
:1036C80060F560F440F340F240F230F250F371F6E6
:1036D80071F571F571F540F274F6DBFE97FA31F287
:1036E80021F196FB85FA43F632F432F331F241F4D4
:1036F80052F572F673F652F572F662F562F5A3F8B2
:10370800A3F9A4F9A3F9B3E9851700003203A7BB0D
:1037180096FB54F732F421C22152226322A321726C
:10372800226322A32162326322920010000000006B
:103738000000000000000000000000000000000081
:103748000000000000000000000000000000000071
:103758000000000000000000000000000000000061
:1037680000004304B70AA3B881F6B4F9B4F9A3F981
:1037780082F671F561F450F440F350F360F460F4AC
:1037880050F460F450F340F340F230F240F361F546
:1037980081F671F650F350F340F285F7B8FB20F14B
:1037A80010F020F1A8FAB8FD85FA43F521F421F2CA
:1037B80041F352F442F472F673F652F451F441F4C0
:1037C80052F481F682F781B6B73B22032202A7BBE7
:1037D80096FB64F732F511C22152226222A321829C
:1037E800226222A3216222632192002000000000AD
:1037F80000000000000000000000000000000000C1
:1038080000000000000000000000000000000000B0
:1038180000000000000000000000000000000000A0
:10382800000000001101B559A3F8A3F9B4F9A3F8F1
:1038380082F671F561F560F450F350F360F460F4CA
:1038480060F460F460F440F340F240F240F250F467
:1038580071F681F681F640F330F230F197F984F78A
:1038680020F050F340F3DBFDB9FB74F996FB43F607
:1038780021F421F231F241F342F442F432F321F31C
:1038880032F322F331F331F331B222522222A7BBB1
:1038980096FB54F632F421C31152224232A32182FC
:1038A800225232B3216222522293001000000000FB
:1038B8000000000000000000000000000000000000
:1038C80000000000000000000000000000000000F0
:1038D80000000000000000000000000000000000E0
:1038E800000000002102A569C5EBD5FBC5FAA3F8C5
:1038F80082F671F671F571F571F550F460F460F4C3
:1039080060F550F450F450F340F240F230F241F3D5
:1039180061F481F670F540F240F230F130F2A8FA25
:1039280042F320F040F396F9FDFF64F620F195FA92
:1039380086FA43F521F421F221F221F222F222F350
:1039480032F322F322F311F211F100F100F074F8CE
:1039580096FB64F732F411C22162225222A311723B
:10396800226222B32162326321920010000000001B
:10397800000000000000000000000000000000003F
:10398800000000000000000000000000000000002F
:10399800000000000000000000000000000000001F
:1039A800000000000000A619C4DAB3F9B3F9B3F9AE
:1039B80092F771F571F681F692F761F560F460F4AB
:1039C80060F460F450F350F340F340F230F240F208
:1039D80051F451F371F660F541F341F210F053F4EC
:1039E800ECFE20F140F3A8FBA9FB52F530F140F2C0
:1039F80030F295FA96FA53F632F511F211F122F3F4
:103A080032F322F332F332F321F310F110F174F8A8
:103A180096FB54F742F521E32162225232A3218218
:103A2800226222A311622263229200200000000079
:103A3800000000000000000000000000000000007E
:103A4800000000000000000000000000000000006E
:103A5800000000000000000000000000000000005E
:103A680000000000000000003102B469B3E9B3F9B6
:103A7800B3F982F772F692F792F771F650F350F4B1
:103A880050F350F350F350F350F340F340F230F258
:103A980051F341F341F261F560F551F4A6FA20F1D2
:103AA80000F097F998FA75F765F730F261F571F556
:103AB80050F472F572F685FA96FA43F621F411F28B
:103AC80021F232F332F332F432F422F321F274F8B1
:103AD80096FB54F721F421F211F221E332C321724B
:103AE800226332B3216222522292001000000000A9
:103AF80000000000000000000000000000000000BE
:103B080000000000000000000000000000000000AD
:103B1800000000000000000000000000000000009D
:103B28000000000000000000000000009428B3F925
:103B3800A3F9B3F9B4F9A3F892F771F550F350F378
:103B480050F350F350F350F350F350F340F340F276
:103B580040F351F340F241F251F460F420F1A8FA35
:103B680073F600F042F3FEFF75F810F171F5A3F853
:103B780061F561F482F700F011F185FA85FA43F5F1
:103B880031F421F221F232F343F432F422F353F602
:103B980096FB64F732F421F321F222F322F321F3A6
:103BA80022B32293216222632292001000000000B7
:103BB80000000000000000000000000000000000FD
:103BC80000000000000000000000000000000000ED
:103BD80000000000000000000000000000000000DD
:103BE800000000000000000000000000000086083F
:103BF800C5AAB3F9B4F9B4F993F892F771F550F38B
:103C080050F350F350F350F350F350F350F340F3A4
:103C180040F240F341F340F241F340F360F430F1F5
:103C280097F9A7FA20F110F298FAA8FB20F161F5AC
:103C380041F330F140F321F210F100F011F185FA6F
:103C480095FA53F631F411F221F222F322F321F31B
:103C580043F454F631F422F332F332F432F332F40B
:103C680032F322F311C222632192001000000000F7
:103C7800000000000000000000000000000000003C
:103C8800000000000000000000000000000000002C
:103C9800000000000000000000000000000000001C
:103CA800000000000000000000000000000000000C
:103CB8004304D84BB3FAC4FAC4FAB4FAA2F861F5CB
:103CC80050F460F450F340F340F350F340F340F203
:103CD80030F240F240F340F230F240F340F250F458
:103CE80030F175F6B9FC20F310F231F4DBFE43F540
:103CF80030F120F120F221F321F221F221F211F129
:103D080011F285FA95FA43F531F411F200F110F148
:103D180022F354F632F422F333F443F443F433F445
:103D280043F432F321F321F221E2002000000000E5
:103D3800000000000000000000000000000000007B
:103D4800000000000000000000000000000000006B
:103D5800000000000000000000000000000000005B
:103D6800000000000000000000000000000000004B
:103D780000000000A509D55BB4B9B4B9B4AA82E6BD
:103D880061F571F560F450F340F240F230F230F131
:103D980020F120F030F140F230F230F241F340F3FC
:103DA80050F320F187F8A9FB10F220F210F097F9F0
:103DB80087F920F132F332F432F332F343F443F566
:103DC80043F532F332F363F732F343F531F454F544
:103DD80076F865F732F432F465F765F744F554F58B
:103DE80054F633F443F532F432F322F332D310218C
:103DF80000000000000000000000000000000000BB
:103E080000000000000000000000000000000000AA
:103E1800000000000000000000000000000000009A
:103E2800000000000000000000000000000000008A
:103E3800000000003203B57AB3D9A2E881D671D563
:103E480071F581F671F650F340F330F230F120F15C
:103E580020F120F020F120F130F130F140F351F35E
:103E680040F330F220F1DCFD76F810F220F110F08A
:103E780053F586F942F443F554F665F776F865F795
:103E880054F565F765F743F521F210F111F276F86C
:103E9800CBFEB9FD86FB32F565F787F998FA98FAF3
:103EA80076F744F565F765F743F564F664F754F675
:103EB80043E521220000000000000000000000008F
:103EC80000000000000000000000000000000000EA
:103ED80000000000000000000000000000000000DA
:103EE80000000000000000000000000000000000CA
:103EF800000000007607B57A92F892F8A3F892F8D5
:103F080092F792F792F761F540F240F230F230F111
:103F180020F120F120F120F130F130F240F261F48B
:103F280050F330F210F064F5FEFF31F410F110F0A8
:103F380010F064F686F975F875F886F9A8FB97F914
:103F480065F787F865F665F775F843F532F421F2F9
:103F580076F9A8FC86FA85FA32F587F898F9A9FA6D
:103F6800BAFC98FA76F876F865F698FAA8FB97FA04
:103F780086F975F865C71001000000000000000010
:103F88000000000000000000000000000000000029
:103F98000000000000000000000000000000000019
:103FA8000000000000000000000000000000000009
:103FB800000000000000B61AC4FAA2F892F892F8BD
:103FC80092F892F892F892F882F771F550F330F27D
:103FD80030F220F120F120F130F140F240F350F4BA
:103FE80071F550F430F210F0DCFDB9FB10F210F06E
:103FF80010F020F198FA86F975F886F998FA87F999
:1040080065F687F876F754F665F754F664F743F5DE
:1040180032F442F675F975FA43F622F386F886F813
:1040280087F998FAA9FB98FA65F797F9A9FB98FA1E
:1040380097FA97FA76F886F93243000000000000F4
:104048000000000000000000000000000000000068
:104058000000000000000000000000000000000058
:104068000000000000000000000000000000000048
:104078000000000000001101A478A2F8A2F892F84C
:10408800A3F8A2F8A3F8A3F892F8B3F992F740F2CC
:1040980030F230F230F130F120F140F250F350F3C9
:1040A80050F470F560F530F175F7FEFF64F710F124
:1040B80010F010F086F8CAFD65F764F765F764F745
:1040C80043F565F754F643F564F643F543F443F5D1
:1040D80043F532F432F532F421F310F232F465F795
:1040E80064F775F865F775F876F876F876F875F880
:1040F80065F764F765F764F775F843640000000036
:1041080000000000000000000000000000000000A7
:104118000000000000000000000000000000000097
:104128000000000000000000000000000000000087
:1041380000000000000000002102A38881F671F64B
:10414800A3F8A3F9B4F9B4F9A3F892F7A3F981F69F
:1041580040F240F240F220F120F030F130F340F428
:1041680061F550F460F450F352F4FDFFCAFC42F5D7
:1041780010F110F042F3ECFE86F843F543F543F4F2
:1041880032F343F533F433F443F532F433F443F5BF
:1041980032F421F332F454F532F321F321F331F4FC
:1041A80042F564F795FB64F732F443F543F543F5BC
:1041B80043F443F443F443F443F453F53264000006
:1041C80000000000000000000000000000000000E7
:1041D80000000000000000000000000000000000D7
:1041E80000000000000000000000000000000000C7
:1041F800000000000000000000005204A3D840F3B3
:1042080081F6A3F9A3F9B3F9A3F892F881F781F736
:1042180071F550F440F240F340F320F130F140F3EF
:1042280020F361F560F450F351F3DBFDEDFEA8FBDC
:1042380043F510F100F075F7CAFD20F332F322F3CD
:1042480022F332F322F332F332F432F332F332F45C
:1042580032F321F332F454F742F411F111F110F171
:1042680000F111F242F575F896FB43F511F122F2CF
:1042780021F222F222F222F222F322F332F4116224
:104288000000000000000000000000000000000026
:104298000000000000000000000000000000000016
:1042A8000000000000000000000000000000000006
:1042B80000000000000000000000000021029297AA
:1042C80081F6A3F9A2F8A3F8A3F8A3F892F881F667
:1042D80071F560F471F561C561A550F340F340F2E2
:1042E80040F320F231F471F540F286F8FEFFB9FB95
:1042F800A8FA53F610F110F0B9FB86F910F021F185
:1043080021F221F221F222F321F321F221F322F307
:1043180021F221F332F464F796FB42F500F000F144
:1043280010F110F111F221F332F575F896FB42F510
:1043380000F111F210F211F211F211F211B221A2F0
:104348001141000000000000000000000000000013
:104358000000000000000000000000000000000055
:104368000000000000000000000000000000000045
:104378000000000000000000000000000000210212
:10438800B56AB3F9A2F8A2F892F8B3F9B4F992F7BA
:1043980071F671F560F460F493A871B540F250F3CA
:1043A80040F350F330F310F241F440F397F9DBFD9A
:1043B80064F775F764F710F120F1DCFE64F610F08D
:1043C80021F220F121F332F432F521F332F321F412
:1043D80021F321F322F464F796FB63F821F331F417
:1043E80031F531F431F431F421F321F332F475F875
:1043F800A6FB42F610F221F431F542F642F71032EC
:1044080000000000000000000000000000000000A4
:104418000000000000000000000000000000000094
:104428000000000000000000000000000000000084
:104438000000000000000000000000000000000074
:1044480000008517B3F992F8A2F892F8B4F9B4FA13
:10445800C4FAC4FAB4FA71F660F481E6936760F4BA
:1044680092F793A860F572C652C510F220F332F4A1
:1044780042F520F242F553F621F365F7A9FB32F431
:1044880020F231F221F232F442F632F432F432F50B
:1044980032F431F442F564F796FB74F942F653F8B6
:1044A80063F853F742F642F542F532F521F321F469
:1044B80043F575F8A6FB53F631F553F763F974FA2B
:1044C800326500000000000000000000000000004D
:1044D80000000000000000000000000000000000D4
:1044E80000000000000000000000000000000000C4
:1044F80000000000000000000000000000000000B4
:10450800000000009508C4BA92F892F8B3E9B4EA3A
:10451800B4FAD5FBB3F9A3F992F772554234A70A56
:10452800A479B64AB80BA629A529B55930F310F2D3
:1045380020F210F220F320F321F321F375F864F64A
:1045480021F331F241F342F442F632F532F432F516
:1045580031F421F332F464F796FB74F953F874F9E3
:1045680074F974F843F643F553F732F432F431F43E
:1045780021F331F432F475F8A6FB53F752F774F9C6
:1045880095FB5387000000000000000000000000B9
:104598000000000000000000000000000000000013
:1045A8000000000000000000000000000000000003
:1045B80000000000000000000000000000000000F3
:1045C8000000000000002202A709B4C9B4A9C72B43
:1045D800B49AD6ABD77C81E692A7B63AA61921023F
:1045E80000008507A56882C7A398A3D891F761F54D
:1045F80010F220F330F310F210F220F320F321F33D
:1046080021F341F451F452F562F632F432F432F502
:1046180031F421F332F454F796FB74F953F763F845
:1046280074F974F953F664F853F643F653F632F412
:1046380032F421F311F221F332F475F896FB63F8A2
:1046480063F885FA63A8000000000000000000007D
:104658000000000000000000000000000000000052
:104668000000000000000000000000000000000042
:104678000000000000000000000000000000000032
:10468800000000000000000000000100950963051B
:104698008608DC0D86087606C92BC81BA48881E627
:1046A800A4683203724670F581F6A2F8A3F8A2F85E
:1046B80081F740F320F271F592F730F310F310F21E
:1046C80021F331F452F552F572F641F432F432F531
:1046D80021F421F332F464F796FB74F952F763F886
:1046E80063F863F852F741F542F553F632F443F5AF
:1046F80042F631F421F311F311F221F442F575F881
:1047080096FB64F974F973C900000000000000000A
:104718000000000000000000000000000000000091
:104728000000000000000000000000000000000081
:104738000000000000000000000000000000000071
:104748000000000000000000000000000000000061
:10475800000000006506C80A85279709B4AA60F416
:1047680060F471F5937782C760F492F7A2F8A2F823
:10477800A3F992F770F550F371F6D5FB93F820F290
:1047880041F462F562F552F572F662F542F431F4DD
:1047980021F321F332F454F796FB74F942F663F8E7
:1047A80063F853F842F577F899FA87F865F665F6ED
:1047B80042F542F532F521F321F321F311F221F309
:1047C80032F475F896FB74F963E800010000000004
:1047D80000000000000000000000000000000000D1
:1047E80000000000000000000000000000000000C1
:1047F80000000000000000000000000000000000B1
:1048080000000000000000000000000000000000A0
:104818000000000000006305C59A70E6839781E6F2
:1048280060F460F460F440F271F592F7B4F9A2F81C
:10483800A3F8B4F9A3F892F782F7A3F8C5FAA4F994
:1048480041F483F773F652F583F752F552F441F4C5
:1048580011F321F332F464F796FB74F942F652F738
:1048680063F863F852F732F599F955F555F633F3CD
:1048780044F564F842F532F432F521F321F321F3DB
:1048880011F221F432F475F896FB74F90011000066
:104898000000000000000000000000000000000010
:1048A8000000000000000000000000000000000000
:1048B80000000000000000000000000000000000F0
:1048C80000000000000000000000000000000000E0
:1048D800000000005405A538C57BC4FA71F560F4E2
:1048E80070F561F671F661F560F460F4A3F9B4F956
:1048F800A3F8A3F9B4F9B3F9A3F8A3F8B4F9A4F9A0
:1049080063F573F762F552F582F752F452F461F5E4
:1049180031F321F322F454F796FB74F952F753F864
:1049280063F874F963F852F732F576F711F222F367
:1049380021F232F353F653F642F532F531F421F30E
:1049480022F421F321F221F332F475F896FB75680D
:10495800000000000000000000000000000000004F
:10496800000000000000000000000000000000003F
:10497800000000000000000000000000000000002F
:10498800000000000000000000000000000000001F
:104998000000000000007406D59BB4FAD6FBC4FAE8
:1049A80093F892F793F9A5FA94F992F892F8B3F973
:1049B800B4F993F8A3F9B4F9A3F8A2F8B3F993F802
:1049C80063F683F772F652F472F652F551F451F425
:1049D80051F421F332F564F796FB74F953F763F851
:1049E80063F863F874F963F852F742F577F832F32D
:1049F80043F422F344F554F742F553F632F532F412
:104A080031F421F332F421F321F221F343F575F85F
:104A1800A6FC75580000000000000000000000001F
:104A2800000000000000000000000000000000007E
:104A3800000000000000000000000000000000006E
:104A4800000000000000000000000000000000005E
:104A580000000000000000004204B48AA3F8B4F982
:104A6800C4FAB3F982F671F6B6FCA5FB93F9A3F97B
:104A7800A3F9B4F992F793F8A3F9A3F9B3F993F862
:104A880062F583F773F652F583F752F542F472F63E
:104A980061F521F332F464F796FB84FA63F863F95D
:104AA80063F863F863F874F964F963F842F677F821
:104AB80032F443F432F344F474F952F643F553F7FD
:104AC80032F532F432F421F321F421F321F321F405
:104AD80032F474F8A6FC75580000000000000000CD
:104AE80000000000000000000000000000000000BE
:104AF80000000000000000000000000000000000AE
:104B0800000000000000000000000000000000009D
:104B1800000000000000000000005305B4CA92F82D
:104B2800B3F9A3F881F681F660F494F9A5FB94FA39
:104B380093F882F781F671F592F7A3F8B4FA93F82F
:104B480063F583F773F653F583F762F563F583F737
:104B580062F642F432F464F796FB85FA74F974F954
:104B680074F974F963F863F874F974F963F842F640
:104B780077F832F332F422F344F464F863F963F714
:104B880043F542F632F432F431F421F332F431F4DD
:104B980021F421F332F475F8A6FC755800000000E2
:104BA80000000000000000000000000000000000FD
:104BB80000000000000000000000000000000000ED
:104BC80000000000000000000000000000000000DD
:104BD8000000000000000000000000014303B53998
:104BE800A2F8A3F992F8A2F892F781F6A3F9A5FB27
:104BF80093FA94FA82F761F561F592F7A3F993F8BD
:104C080063F684F873F653F583F762F563F683F772
:104C180073F621F332F464F896FB85FA85FA85FA7F
:104C280074F974F974F963F863F874F974F963F84A
:104C380052F773F834F373F931F445F566F873F9FC
:104C480074FA53F742F542F632F432F532F432F49C
:104C580032F432F532F532F442F564F8A6FC7658AF
:104C6800000000000000000000000000000000003C
:104C7800000000000000000000000000000000002C
:104C8800000000000000000000000000000000001C
:104C980000000000000000001101C66AB74BC64BB7
:104CA800B589B4F9B3F9A3F8A3F8A3F8B4F9A3F94B
:104CB80093F894FA94FA94F961F571F5A3F893F8D6
:104CC80062F583F783F753F584F762F552F583F7B6
:104CD80062F531F432F454F796FB85FA85FA85FAD1
:104CE80084FA74F974F974F963F863F874F974F967
:104CF80063F864F975FA76F996FB74F974FA74FA3C
:104D080074FA74F974F953F743F653F642F532F529
:104D180032F432F432F542F632E411E232F575F843
:104D2800A6FC8659000000000000000000000000FA
:104D3800000000000000000000000000000000006B
:104D4800000000000000000000000000000000005B
:104D5800000000000000000000009608E6CCD6FC29
:104D6800D5CBD6FCD5FBB4FAA3F9A3F8B3F9B4FABA
:104D780081F671F6A4FA94FBA5FB83F882F793F702
:104D880052F583F773F753F594F863F652F596F9ED
:104D980052F521F232F464F796FB74F985FA96FB22
:104DA80095FB85FA74F974F974F963F863F974F981
:104DB80074F974F963FA63F963FA63F963F963F9E7
:104DC80063F974FA74F974F974F953F743F553F6FF
:104DD80042F532F442F532F542F553E6218231E4E8
:104DE80032F575F8A6FC76580000000000000000B7
:104DF80000000000000000000000000000000000AB
:104E0800000000000000000000000000000000009A
:104E1800000000000000000000000100C75AE6FC86
:104E2800D6FCD5FBC5FBB4FAC5FAB4FAA3F8B3F9B6
:104E3800A3F871F571F693F9A5FB94FBA4FA83F82E
:104E480062F683F773F663F594F863F563F697F9FA
:104E580076F821F332F564F795FB63F752F796FB82
:104E680096FB95FB85FA74F974F974F963F874F98B
:104E780074F974F974FA74FA63F963F863F963F905
:104E880063F963F984FA84FA74F974F973F953F7D6
:104E980042F553F642F542F542F642F543F63273CF
:104EA800117121E343F575F8A6FC75580000000060
:104EB80000000000000000000000000000000000EA
:104EC80000000000000000000000000000000000DA
:104ED8000000000000000000000000005315E6EC90
:104EE800C5FBB4FAC4FA93F8A3F8A2F8A3F9A3F897
:104EF800A3F881F681F681F693F8A4FA94FBA4FB53
:104F080084F983F873F753F584F863F663F697F931
:104F180086F821F332F464F796FB84FA62F773F8A3
:104F280096FB96FB95FA85FA74F974F974F963F8A7
:104F380063F874F874F974F974FA74FA73FA73FA12
:104F480073FA73FA74FA84FA84F974F974F973F9D0
:104F580074F953F743F553F642F542F553F742F522
:104F680022932242217231E442F575F8A6FC765864
:104F78000000000000000000000000000000000029
:104F88000000000000000000000000000000000019
:104F98000000000000000000000000000000D6BB78
:104FA800C5FB92F8C4FAB4FA82F781F681F792F752
:104FB80082F682F660F471F692F8B4F9B4FAA4FABB
:104FC80094FAA5FB94F963F694F873F663F686F9F8
:104FD80054F521F332F464F796FB73F884F995FAE3
:104FE80074F996FB96FB85FA84FA74F974F974F9E6
:104FF80063F874F974F974F984FA85FA85FA85FA0C
:1050080085FA85FA85FA85FA85FA84FA74F974F9C5
:1050180073F974F984FA63F743F553F743F642F5E5
:1050280053F732C422832242217221E342F575F8F4
:10503800A6FC7558000000000000000000000000F9
:105048000000000000000000000000000000000058
:105058000000000000000000000000000000010146
:10506800C68B91F792F8C5FBC4FA91F781F7A3F8BC
:1050780071F650F361F550F371F5B3F9B4FAB4FA77
:1050880093F994FAA5FB95F994F862F563F686F915
:1050980021F220F232F464F796FB94FA93F995FB27
:1050A800A5FA95FA96FB96FB85FA84FA74F974F9D1
:1050B80074F963F874F974F974F985FA85FA85FA5C
:1050C80085FA85FA85FA85FA85FA85FA84FA74F9F3
:1050D80074F974F974F974F984FA63F743F553F7BA
:1050E80043F653F642A5219232832242116131F4EC
:1050F80042F575F8A6FC8559000000000000000084
:105108000000000000000000000000000000000097
:105118000000000000000000000000000000000087
:105128000000835792F7A3F8C5FAA3F992F8A3F9F8
:10513800B4E992E760F460F450F360F492F7B4F9DC
:10514800B3F992F893FAA6FB94F963F676F8A7FAFE
:1051580076F821F232F464F796FB94F9B3F9A4FADD
:10516800A5FBB5FB95FB96FB96FB85FA84FA74F9CB
:1051780074F974F963F974F974F974F985FA85FAAC
:1051880084FA85FA85FA85FA85FA85FA85FA84FA21
:1051980074FA74F974F974F984FA84FA84FA63F77E
:1051A80043F664F843F632C4224222922273114233
:1051B800117121E332F464F8A6FC8659000000005E
:1051C80000000000000000000000000000000000D7
:1051D80000000000000000000000000000000000C7
:1051E80000000000A4A8A3F860F5A4F9D6FBA3F971
:1051F800A3E8A3D881F671F660F461F471F592F72B
:10520800A3F892F892F782F782F763F755F686F8D3
:1052180075F732F411F354F796FB73F8A3F8C5FB4E
:10522800A5FBA5FBB4FA95FB96FB95FB85FA84FADA
:1052380074F974F974F973F974F974F974F984FAEE
:1052480074F963F963F863F973F974F985FA85FAFF
:1052580084FA74FA74F974F974F984FA85FA84FA98
:1052680085FA64F853F664F842F53293214222A293
:1052780022832242218211E222F364F8A6FC7558A7
:10528800110141242002000000000000000000007D
:105298000000000000000000000000000000000006
:1052A8000000000000006235939793A792F7E6ECA0
:1052B800B4DAA3E9A3F882F781F671F571F571F60E
:1052C80081F693F894F871F560F5A4F885F831F350
:1052D80020F120F221F354F696FB63F661F4C4FA48
:1052E800B5FBA5FBB5FBA4FA96FB96FB96FB85FAE6
:1052F80084FA74F974F974F973F974F974F974F92E
:1053080074F953F742F554F654F654F654F763F823
:1053180074F984FA74FA74F974F973F984FA85FAE9
:1053280085FA84F995FB74F854F653D721723293B1
:105338002152219222932152117221F322F365F80E
:1053480095FB82A841340000000000000000000026
:105358000000000000000000000000000000000045
:105368000000000000000000000021013203733635
:10537800C4AAA3E9A4FBB5FB93F892F781F681F6DA
:1053880081F671F581F6A5F9A8FBA7FA97F942F31A
:1053980040F431F332F464F796FB85FA20F251F4C5
:1053A800B4FAA4FBA4FBB4FBA4FA96FB96FB95FB0A
:1053B80085FA84F974F984FA74F974F974F974F94A
:1053C80074F974F941F598F9AAFA99F999F999F9DA
:1053D80064F763F884FA84FA74F974F974F984FA4E
:1053E80085FA85FA85FA74F895FB74F853F6226302
:1053F80011823293215221A232832253117221E366
:1054080042F581F84154000000000000000000004F
:105418000000000000000000000000000000000084
:105428000000000000000000000000000000000074
:10543800A559C4FAB4F9A4F9B6FCA4FAA3F992F7E9
:1054480081F681F782F681F681F672F651F440F220
:1054580040F250F432F564F795FB73F753F631F4E4
:1054680030F393F9A5FBA4FBA3F994FA96FB96FBFA
:1054780095FB85FA84F974F974F974F974F974F977
:1054880074F974F974F942F677F721F221F210F100
:1054980032F364F753F874FA84FA74F974F973F907
:1054A80074FA85FA85FA85FA84F873F796FB74F826
:1054B8002293224221922293224222A22283123252
:1054C800318380F852F6111100000000000000003E
:1054D80000000000000000000000000000000000C4
:1054E80000000000000000000000000000000000B4
:1054F8006405C4EAB3F9A3F9A3F9B4FAA4FB94FBCD
:10550800A4FA82F781F792F781F692F771F650F3D1
:1055180050F450F340F340F471F672F740F220F182
:1055280030F482F7A4FAA5FBA4FBA3F994FA96FB3E
:1055380096FB95FA85FA84F974F974F974F974F993
:1055480074F974F974F974F942F677F833F443F49A
:1055580032F343F464F753F874FA84FA74F974F97B
:1055680073F974F985FA85FA85FA95FA73F673F77B
:1055780096FC429522922252218232A32152119204
:10558800328381D850D6004000000000000000009F
:105598000000000000000000000000000000000003
:1055A80000000000000000000000000000000000F3
:1055B80000006226D5FBB4FAA3F8A3F9C4FAB5FB38
:1055C800A5FBA5FBA4FA92F892F782F781F771F68A
:1055D80060F450F350F340F250F471F681F661F440
:1055E80082F7B3F9A3F9A3F9B5FBB5FBB3F995FABB
:1055F80096FB96FB95FA85FA84F974F974F973F9B0
:1056080074F974F974F974F974F942F677F833F4A3
:1056180033F432F333F364F763F884FA85FA84FADF
:1056280074FA74F974F985FA85FA85FA85FA95F9A0
:1056380062F585FA42560030329322531182228352
:10564800225261F681E8001100000000000000000D
:105658000000000000000000000000000000000042
:105668000000000000000000000000000000000032
:10567800000000003102C5CAB4E9C4DAD5FBD5FB85
:10568800D5FBC5FCA4FB94FBA4FA93F871F681F64C
:1056980071F660F650F440F240F260F481F781F65A
:1056A80082F7B4FAC5FAA3F8A3F8A3FAB4F9B4FADE
:1056B80095FA96FB96FB85FA84FA74F974F974F9ED
:1056C80073F974F974F974F974F963F862F974F890
:1056D80044F473F941F445F555F763F884FA85FA0B
:1056E80074FA74FA74F974F985FA85FA85FA85FA00
:1056F80096FB84F773F653870000005122932253D8
:1057080022A351E591F95155000000000000000066
:1057180000000000000000002102613610010000B6
:105728000000000000000000000000000000000071
:1057380000000000000000008417D6DCD6FBD5FB73
:10574800D5FBD5FBB4FAA4FAA4FBA5FB82F771F547
:1057580060F460F471C670F760F570F571F692F850
:1057680092F7A3F8B4F9A3F992F7A3F992F8B3F969
:10577800A4F995FA96FB96FB85FA84FA74F974F9FC
:1057880074F963F974F974F974F974F974F974FAB9
:1057980075FA76F996FB74FA74FA64F963F984FA7F
:1057A80085FA84FA74F974F974F985FA85FA85FA30
:1057B80085FA95FB95F973F652A500000000104193
:1057C80022A2205280F881C80000000000000000DA
:1057D8000000000000000000513581D870F781D822
:1057E800302300000000000000000000000000005E
:1057F800000000000000000000008506E6DCD6FB83
:10580800C5FBC4FAA3F9A2F8A3F993F983F771F6D3
:1058180070F560F560F48367619570F781F881F73A
:1058280092F8A3F9A3F8A3F892F7A2F882F771F611
:10583800A3F8A3F995FB96FB96FB85FA84FA84F9FD
:1058480074F974F963F974F974F984F974F974FAE8
:1058580063FA63F963FA63F963F963F963FA74FA4B
:1058680085FA52F552F472F673F874FA84FA85FAE6
:1058780085FA85FA95FB96FA84F762E5111100001E
:10588800000000005085A1FA41440000000000001B
:105898000000000000000000413491F970F791F910
:1058A80081C860C610110000000000000000000060
:1058B8000000000000000000000000004204D6BC08
:1058C800C5EBB4EAB4F9B4E992F892F861F440F29D
:1058D80071E671F680F6C5BB64053202941781C87B
:1058E80080F881F782F792F782F781F682F771F6EE
:1058F80082F7A2F893F996FB96FB96FB85FA84FA51
:1059080084FA74F974F963F874F974F984FA84FA06
:1059180074FA74FA63F963F963F963F963F963F97B
:1059280084FA63F620F163F783F762F473F885FA73
:1059380085FA85FA85FA95FA96FB94F872F542632A
:1059480000000000101181F881D80000000000005C
:105958000000000000001001201270D770F791F9C4
:105968006186100110414094000000000000000012
:10597800000000000000000000000000000011010D
:10598800C74BB519A37892E8B4AAB4DAA3F872C6DB
:1059980093788467936AB64A53042102A539B5BA45
:1059A80093C881F881F881F792F771F571F561F57F
:1059B80092F892F881F693F996FB96FB95FB85FA97
:1059C80084FA74F974F974F963F874F974F984FA57
:1059D80085FA84FA74FA74FA74F974F964F974FA41
:1059E80074FA62F541F374F885FA74F973F662F49F
:1059F80074F885FA85FA85FA85FA96FB95F973F6AF
:105A080052B400000000406491F9516500000000A4
:105A1800000000000000615692B991E970F770F734
:105A28006186000000000000416420320000000090
:105A3800000000000000000000000000000000005E
:105A48000000752792A981F981F870F781F8B3CA27
:105A58009448320311012013632800001001944870
:105A6800C5FBB4F9A3F881F881F860F561F461F534
:105A780071F571F771F681F694F996FB96FB95FB33
:105A880085FA84FA84FA74F973F963F874F974F985
:105A980084F984FA74F974F963F853F742F742F613
:105AA80063F662F552F574F985FB74FA74FA74F9C1
:105AB80072F562F584F985FA85FA85FA95FB95F908
:105AC80083F662F51111000060D691F910110000FB
